:100000000C9462040C94A9040C94A9040C94CD0FD4
:100010000C94A9040C94A9040C94A9040C94A904AC
:100020000C94A9040C94A9040C941B230C94EF23A6
:100030000C94E01B0C94A9040C94A9040C94A9043E
:100040000C94A9040C94A9040C94A9040C94A9047C
:100050000C94A9040C942B1C0C94A9040C94A904D2
:100060000C94A9040C94A9040C94A9040C94A9045C
:100070000C94A9040C94A9040C94A9040C94A9044C
:100080000C94A9040C94A9040C94A9040C94A9043C
:100090000C94B80E0C94A9040C94A9040C94A90413
:1000A0000C94A9040C94A9040C94A9042200032123
:1000B000007D0022000321007F00DA02818FD9F148
:1000C000DB40A4A62EAF810000A1C800A0C000AEF6
:1000D000D580A81FD300408D142000000000000030
:1000E00000003E5B4F5B3E003E6B4F6B3E001C3E94
:1000F0007C3E1C00183C7E3C18001C577D571C00A1
:100100001C5E7F5E1C0000183C180000FFE7C3E780
:10011000FF00001824180000FFE7DBE7FF0030486D
:100120003A060E00262979292600407F050507009A
:10013000407F05253F005A3CE73C5A007F3E1C1C8F
:100140000800081C1C3E7F0014227F2214005F5F01
:10015000005F5F0006097F017F00006689956A00E5
:1001600060606060600094A2FFA2940008047E04B6
:10017000080010207E20100008082A1C0800081C17
:100180002A0808001E10101010000C1E0C1E0C0077
:1001900030383E383000060E3E0E060000000000EB
:1001A000000000005F000000000700070000147F4F
:1001B000147F1400242A7F2A12002313086462008B
:1001C000364956205000000807030000001C224159
:1001D00000000041221C00002A1C7F1C2A00080885
:1001E0003E08080000807030000008080808080079
:1001F0000000606000002010080402003E514945E4
:100200003E0000427F4000007249494946002141BA
:10021000494D33001814127F100027454545390019
:100220003C4A4949310041211109070036494949F1
:100230003600464949291E00000014000000004015
:100240003400000000081422410014141414140097
:100250000041221408000201590906003E415D597F
:100260004E007C1211127C007F49494936003E4104
:10027000414122007F4141413E007F4949494100BF
:100280007F09090901003E41415173007F080808B8
:100290007F0000417F4100002040413F01007F0876
:1002A000142241007F40404040007F021C027F003A
:1002B0007F0408107F003E4141413E007F0909094B
:1002C00006003E4151215E007F091929460026495A
:1002D0004949320003017F0103003F4040403F0095
:1002E0001F2040201F003F4038403F006314081487
:1002F00063000304780403006159494D4300007F03
:1003000041414100020408102000004141417F00AA
:10031000040201020400404040404000000307087E
:1003200000002054547840007F284444380038446A
:1003300044442800384444287F003854545418005A
:1003400000087E0902001824241C78007F08040499
:10035000780000447D4000002040403D00007F10B8
:100360002844000000417F4000007C0478047800AD
:100370007C08040478003844444438007C18242461
:100380001800182424187C007C0804040800485431
:100390005454240004043F4424003C4040207C008A
:1003A0001C2040201C003C4030403C0044281028C9
:1003B00044004C9090907C004464544C44000008ED
:1003C00036410000000077000000004136080000C0
:1003D0000201020402003C2623263C00000000002B
:1003E000000000000000000000000000C0E0F0F885
:1003F000F81800C0F0FCFEFFFFFFFFFFFFFF7E00CC
:10040000000000000000000080C0E0E0E0E0E0E06C
:10041000E0E0C0800000000080C0E0E0E0E0E0E05C
:10042000E0E0C080000000E0E0C0C0E0E0E0E0000C
:1004300000E0E0C0C0E0E0E0E0E0C08000000000DC
:1004400080C0E0E0E0E0E0E0E0E0C080000000002C
:1004500000000000000000000000E0F0F0F0E0EC20
:10046000EEF7F37020007C7C7C7E007E7E7E7F7FBA
:100470007F000080C0E07E5B4F5BFEC00000C000DC
:10048000DCD7DEDEDED7DC00C000000000000000AC
:10049000000000000000000000000000000000005C
:1004A0000000000000F8FCFEFFE000FFFFFFFFFF80
:1004B000FF80FFFFFFFFFFFFFFFFFF1F070100009F
:1004C00000000000000000FFFFFF810000000000AE
:1004D0000081C3C3C30000FFFFFF810000000000D4
:1004E0000081FFFFFF0000FFFFFF01000000000090
:1004F00000FFFFFF010000000001FFFFFF0000FF01
:10050000FFFF9D1C1C1C1C1C1C9DDFDFDF0000006E
:10051000000000000000000000000F1F3F7F7F7FF1
:100520007F7F3F1E0C001F1F1F3F003F3F3F7F7F0D
:100530007F00307B7F7830202030787F3B000300C5
:100540000F7F0F0F0F7F0F0003000000000000005F
:10055000000000000000000000000000000000009B
:100560000000000000030F1F3F3F3F3F1F1F3F3FA2
:100570007F7F7F3F3F1F3F7F7F7F7F7C7878381C66
:100580000F0000000000000001030707070707072E
:10059000070703010000000001030707070707071B
:1005A0000707030100000007070700000000000024
:1005B0000007070700000000000007070700000011
:1005C00001030707070707070707030100000000EB
:1005D000000000000000000000000000000000001B
:1005E000000000000000000000000000000000000B
:1005F00000000000000000000000000000000000FB
:1006000000000000000000000000000000000000EA
:100610000000000000000000000000002B0014009B
:100620001A00080015001700E0000400160007007B
:1006300009000A00E1001D001B000600190005006A
:10064000000000000000E20029682C422D00130089
:1006500012000C0018001C00340033000F000E00C4
:100660000D000B002E00380037003600100011007E
:100670000000000000002C012A00284101001E009B
:100680001F0020002100220001002300240025007B
:10069000260027000100000000000000000000000C
:1006A0000000000000000100010003542800670062
:1006B0005400550056005700000000004F00520043
:1006C00051005000000000003700360000004C00D0
:1006D00000000000000001000100010001003A00DC
:1006E0003B003C003D003E0001003F004000410057
:1006F00042004300010044004500000000000000EB
:1007000000000000000001000100010000002202C2
:10071000210220021F021E02310231003502350083
:100720002402230230022F0230002F00270226026B
:1007300000000000000001002C010354005C0D5D6E
:100740000000000000000000C25CC55CC75CC95C22
:1007500000000000C35CC65CC85CCA5C000000000E
:100760000000000000000100010001000000000086
:100770000000000000000000000000000000000079
:100780000000000000000000000000000000000069
:10079000000000000000010001000100040330001F
:1007A00000002E0343006F0072006E006500200001
:1007B0004B006500790062006F0061007200640008
:1007C00020002800630072006B00620064002900B2
:1007D0000000100366006F006F007300740061007A
:1007E0006E0000000403090409023B00020100A09E
:1007F0003209040000010301010009211101000177
:100800002240000705810308000A090401000103D2
:10081000000000092111010001224F000705820399
:1008200020000A1201100100000008EDFE603001F6
:10083000000102030105010902A10185020901A1CC
:100840000005091901290515002501950575018186
:1008500002950175038101050109300931158125D2
:100860007F95027508810609381581257F950175E8
:10087000088106050C0A38021581257F9501750847
:100880008106C0C005010906A101050719E029E795
:1008900015002501950875018102950175088101F2
:1008A0000507190029FF150026FF00950675088128
:1008B0000005081901290595057501910295017535
:1008C000039101C011241FBECFEFDAE0DEBFCDBF20
:1008D00004B603FE27C080919A0390919B03A091D8
:1008E0009C03B0919D038730904BA740B04BD1F44F
:1008F00010929A0310929B0310929C0310929D03F6
:1009000014BE84B7877F84BF0FB6F894A8958091F2
:100910006000886180936000109260000FBEE0E08C
:10092000F8E3099512E0A0E0B1E0E6E8F2E502C0E4
:1009300005900D92A831B107D9F723E0A8E1B2E004
:1009400001C01D92AA39B207E1F70E944C200C9415
:100950001D290C940000CF93C82F88E70E94760EC3
:10096000882311F0C0E00BC080E00E94A90E811125
:10097000F9CF8C2F0E94A90EC1E08111F3CF0E9404
:100980009D0E8C2FCF9108951F93CF93DF93C82F87
:10099000D92F162F180FFE0184910E94AB048823D3
:1009A00019F021961C13F7CFDF91CF911F91089575
:1009B0008EEA0C94AB048FEA0C94AB040F931F9354
:1009C000CF93DF93EC018C010C5A1F4FD801ED91AE
:1009D000FC91119760838D919C91119701968D9355
:1009E0009C938C1B9D0B84359105B9F4BE016B5E05
:1009F0007F4F4FE350E0CE010E94DC25CE01CF9621
:100A0000F8019183808345E150E060E270E0DF917E
:100A1000CF911F910F910C94EE25DF91CF911F91F3
:100A20000F9108951F93CF93DF93EC01FC01EA5AD5
:100A3000FF4F81E080836A30B1F4329780819181E9
:100A40008C1B9D0B65E170E00E94A125182F1531CC
:100A500020F0DF91CF911F91089560E2CE010E94B6
:100A6000DE041F5FF4CFCE01DF91CF911F910C9474
:100A7000DE040F931F93CF93DF938C01EB016991F9
:100A8000611105C0DF91CF911F910F910895C801A9
:100A90000E941205F4CFCF93DF93EC010E94390539
:100AA00062E771E0CE01DF91CF910C943905CF93CD
:100AB000DF93EC0144E550E060E270E00E94EE2537
:100AC000FE01EC5AFF4FD183C083CA5ADF4F81E049
:100AD0008883DF91CF9108957F928F929F92AF92FA
:100AE000BF92CF92DF92EF92FF920F931F93CF931B
:100AF000DF938C010E94101C9093190280931802BE
:100B00000E94DB0467E08CEA90E00E94C404882322
:100B100099F188E70E94760E81112EC080E40E9430
:100B2000A90E811129C07801480184E5880E911C25
:100B300096E0792E5701D12CF501C1915F01C79D37
:100B4000E0011124C452DF4F86E0C82EFE018491DB
:100B50000E94A90ECA942196C110F8CFD394F5E152
:100B6000DF12EACF85E1E80EF11C8E149F0411F725
:100B7000F801EA5AFF4F1082DF91CF911F910F9138
:100B8000FF90EF90DF90CF90BF90AF909F908F90AD
:100B90007F900C949D0E88E093E00C946C051F935D
:100BA000CF93DF93C82F0E94700E6DE08FEC90E022
:100BB0000E94C404811106C0C0E08C2FDF91CF9148
:100BC0001F91089563E08CEC90E0C11102C089ECA4
:100BD00090E00E94C404882379F36FE08AEB90E0F0
:100BE0000E94C404C82F882339F388E093E00E9450
:100BF000570567E083EB90E00E94C404882359F016
:100C000088E70E94760E811106C080E40E94A90E3A
:100C100014E0882361F00E949D0E0E94CB05CDCF89
:100C200080E00E94A90ED150D9F7115011F0D0E800
:100C3000F7CF10925E03EFCF0E947C0980915E0394
:100C4000811104C080910001882321F00E94CB050E
:100C50001092000180911802909119020E941C1CB0
:100C600081369A4E10F00C94D804089581E0809358
:100C700000010895CF93DF93AAE7B1E04EE751E07A
:100C8000C1E0D0E08D91E82FE295EF70F0E061A136
:100C90008F709E0101C0220F8A95EAF7922F9095DE
:100CA000962391A382A1822B82A34A175B0751F757
:100CB000DF91CF9108950C944109209A559A289A72
:100CC0005D9A08955D9808955D9A0895289808950D
:100CD000289A08950E940C080E943A06A4E7B1E001
:100CE00061E070E08D91E82FE295EF70F0E041A1B6
:100CF0008F709B0101C0220F8A95EAF7922F909581
:100D0000942391A382A1822B82A381E0AA37B80702
:100D100049F70E945D06E2E2F2E0AAE1B2E0119238
:100D20001D9282E0EA32F807D1F70E94EE07809325
:100D30002A020C94410A9F92AF92BF92CF92DF9207
:100D4000EF92FF920F931F93CF93DF938091020155
:100D5000C4E0D0E0882311F0D0E0C0E08AE7C82EDC
:100D600081E0D82EAE01465E5D4F7A018A01AA2449
:100D7000A394B12C25E0922EF60181916F01E82F0A
:100D8000E295EF70F0E021A18F70A50102C0440F41
:100D9000551F8A95E2F7CA01922F982B91A392A131
:100DA0008095892382A350EA5A95F1F7E4E7F1E0B0
:100DB00020E050E040E03191A32FA295AF70B0E069
:100DC00090968C9190E03F7002C0959587953A95EA
:100DD000E2F780FD39C0C501042E01C0880F0A94D6
:100DE000EAF7282B4F5F5F4F4630510521F7F80196
:100DF0008081821719F02083909201010E943A06A7
:100E00000F5F1F4FFEE7CF16F1E0DF0609F0B4CF0A
:100E100080910101882359F081508093010188233A
:100E2000A9F08FE99FE00197F1F700C0000081E091
:100E3000DF91CF911F910F91FF90EF90DF90CF90B6
:100E4000BF90AF909F90089580E0CBCFCE5DDD4FF7
:100E5000F70191917F0199938F5F8430C9F7E7CFB4
:100E60000F931F93CF93DF932091020110E000E0D6
:100E7000222311F004E010E00E942708EC01009703
:100E800039F0029711F40E946606C1E0D0E011C06B
:100E90000E946806F801EE5DFD4F80913602909148
:100EA0003702A0913802B091390280839183A283E6
:100EB000B383CE01DF91CF911F910F9108950E94CE
:100EC0009B0680910201E4E0F0E0882311F0F0E05D
:100ED000E0E0EE5DFD4F90E080E020E0DC01AA5C08
:100EE000BD4F4C913191431321E03C9301968430E6
:100EF0009105A1F780912F02820F80932F02089510
:100F0000CF93DF9380912A02882309F445C00E9481
:100F10009B0680910201C4E0D0E0882311F0D0E06C
:100F2000C0E0CE5DDD4F44E050E0BE0182E392E0E0
:100F30000E94CF25488159816A817B81409332028A
:100F40005093330260933402709335020E9430074D
:100F5000892BE9F00E94620680912B028F5F8093BB
:100F60002B02863070F080910201F0E0E0E08823EF
:100F700011F0E4E0F0E0EE5DFD4F1082118212828C
:100F800013820E94490A81E0DF91CF9108950E9467
:100F9000640610922B02F5CF0E945F078091020138
:100FA000811112C090E080E08E5D9D4F4091320231
:100FB000509133026091340270913502FC014083FC
:100FC000518362837383DDCF84E090E0EDCFE82F1F
:100FD000F0E0EE5DFD4F80810895089580912C0230
:100FE000811111C08091D80080618093D8008AE17E
:100FF0008A95F1F700C09091D900892F817090FFF8
:1010000082E080932C0281E090912C02913009F0D3
:1010100080E008950C94EE070E940A088093020174
:101020000E94EE07882321F00E941B0878940895FF
:101030000E942108FBCF63E070E083E091E00C9414
:101040007A0F63E070E083E091E00C94830F0F93DC
:101050001F93CF93DF938C0190911C0180911B0112
:10106000D0E0C0E0981759F082E090E00E945C1058
:10107000EC01892B21F480911B0180931C0180914C
:101080002D0290912E02082B192B90E080E0012B6D
:1010900011F081E090E00E945C10892B71F4809146
:1010A0002F0280931B0110922E0210922D02CE016E
:1010B000DF91CF911F910F91089581E090E090937F
:1010C0002E0280932D02F3CF8091D8029091D90205
:1010D000A091DA02B091DB0284309105A105B1053F
:1010E000E1F128F50097A105B10571F16EE971E014
:1010F00082309105A105B10549F1BF93AF939F934C
:101100008F9389EB91E09F938F931F9288E18F9348
:101110008FE593E09F938F930E94FC258DB79EB738
:101120000A960FB6F8949EBF0FBE8DBF13C08830CD
:101130009105A105B10529F08E309105A105B105F4
:10114000E1F66BEA71E002C062E871E08FE593E0DE
:101150000E94F5258FE593E0089561E971E0F6CFEF
:101160008DE191E00895CF93C0E28C33910520F496
:10117000FC01E552FE4FC0811F92CF939F938F9346
:10118000FB0180811F928F9381811F928F938AEC44
:1011900091E09F938F931F9288E18F9381E592E076
:1011A0009F938F930E94FC258DB79EB70E960FB626
:1011B000F8949EBF0FBE8DBF80913A0290913B0282
:1011C000449761F410923B0210923A02ECE3F2E091
:1011D00080E2819392E0E035F907D9F780913A02F5
:1011E00090913B02FC01E45CFD4FC083019690931B
:1011F0003B0280933A02CF91089581E592E00895F1
:101200000F931F93CF93DF93EC018B010E9436065F
:10121000882351F0B801CE010E94A0098170DF91AE
:10122000CF911F910F91089580E0F8CF0C943B0966
:10123000CF93DF93EC010E94A31ABE0190E080E0FF
:10124000DF91CF910C94E417CF93DF93D62FC42F67
:101250000E944618882351F08D2F0E94461888233B
:1012600029F08C2FDF91CF910C9466188C2FDF9191
:10127000CF910C9487180E94EE0791E089270C9477
:10128000CF050C941C06CF93DF93EC0180912A02CA
:10129000882371F00E946408BC01CE010E944B05B6
:1012A0000E94FD08BC01CE01DF91CF910C944B054B
:1012B0000E94B008BC01CE01DF91CF910C9439059A
:1012C0000F931F93CF93DF93EC018B0144E550E024
:1012D0000E94CF25892B59F084E5F801DE010190A9
:1012E0000D928A95E1F7CA5ADF4F81E08883DF913A
:1012F000CF911F910F910895CF93DF93CDB7DEB7B4
:10130000C755D1090FB6F894DEBF0FBECDBFCE01D1
:1013100001960E945705CE0101960E944309BE0125
:101320006F5F7F4F88E093E00E946009C95ADF4FEA
:101330000FB6F894DEBF0FBECDBFDF91CF910895F9
:101340000F931F93CF93DF93EC018B01FB018281FD
:10135000882319F0CE010E94B308C930FDE5DF07EC
:1013600041F170F4C33CECE5DE0709F1C830DD451E
:10137000B1F0C1E08C2FDF91CF911F910F910895B3
:10138000CA308DE5D80711F1CB30DD4591F7F80172
:10139000C28183E0CC2331F10E94661808C0F801B5
:1013A000C281CC2339F381E090E00E941809C0E0AB
:1013B000E1CFF801C28181E0CC2361F00E94661880
:1013C00043E062E081E00E942409F1CFF801C2818C
:1013D00082E0F2CF0E94871843E062E081E00E9441
:1013E0002409C8CF0E948718C5CF81E008950895C9
:1013F0000C94F7091F93CF93DF9300D000D00F9286
:10140000CDB7DEB749835A836B83309181028981DE
:101410009A8131111DC06623B9F02223A9F00E94E0
:101420005919182F682F89819A810E9402196981A0
:101430007A81812F0F900F900F900F900F90DF9176
:10144000CF911F910C94A60A0E943019182FEFCF4C
:101450000E94591969817A81EDCFFC01262F4081C4
:1014600051816281738184810C94FA09CF93DF9357
:10147000EC0160E00E942D0ABE01DF91CF910C9437
:10148000F8090E94901A811102C00E94321B0C942C
:1014900016090C945B0608950C944B0A81E008959C
:1014A0000C944E0ACF93C82F0E944C0A8C2FCF91D8
:1014B0000C94500A08950E94D6140E945A0A2FEFE5
:1014C00084E39CE0215080409040E1F700C00000A0
:1014D0000C944F1C0F931F93CF93DF93EC0161E0AB
:1014E0000E942D0A8C01BE010E940009882329F167
:1014F000BE01C8010E94D90C8823F9F0BE01C801C1
:101500000E941A0D8823C9F0BE01C8010E943D0E39
:10151000882399F08A81882339F001158CE5180712
:1015200051F00E3D1C4579F0CE01DF91CF911F9116
:101530000F910C94F5090E945B0A80E0DF91CF9136
:101540001F910F9108950E94321BF7CF972F70E0E3
:1015500026E0929F600D711D1124FB0190E3899F8D
:10156000E00DF11D1124EE0FFF1FE45EF94F859190
:1015700094910895CF93DF930E94A60A0E94920B44
:10158000EC01811522E5920778F5811531E5930785
:1015900008F098C08F3F910509F0B8F4803F91059D
:1015A00008F06FC0853A910540F48430910548F405
:1015B000019739F0D0E0C0E004C0805E910908973F
:1015C000C8F7CE01DF91CF910895811540E59407CA
:1015D00008F05CC0C11580E4D80708F054C0C115FC
:1015E00090E2D90770F3E6CF811526E5920718F54A
:1015F000811535E5930708F07DC0811544E5940712
:1016000008F073C0982F969596959E012370332706
:10161000C115D34508F45BC0C1E0D0E002C0CC0FD7
:10162000DD1F2A95E2F730E2939FC0011124C82BF9
:10163000D92BDA68C6CFC1159AE5D90778F4C11558
:1016400029E5D20708F060C0C11538E5D30708F4D2
:10165000B1CFDC2FCC27C06FD06AB3CFCE0190566C
:101660008115904208F0A6CF8D2F8F710E94290C12
:1016700090E0982F882788279F719C012C2BE901E7
:1016800041C0D0659ECFDF70D06A9BCFE4E09695D5
:101690008795EA95E1F783702C2F26952695237080
:1016A00090E2299F90011124382B8C2F8370C1E088
:1016B000D0E002C0CC0FDD1F8A95E2F7C22BD32BFE
:1016C000DC687FCFD82FCC27C16FD06A7ACFC1E03A
:1016D000D0E002C0CC0FDD1F2A95E2F720E2929FF6
:1016E000C0011124C82BD92BEBCFD82FCC27C46F26
:1016F000D06A67CF0E94290CC82FD0E0DC2FCC27FE
:10170000CC27DF71D0625DCF8C2F8F700E94290CA7
:1017100034E0D695C7953A95E1F7CF709C2FEC0150
:10172000D0694FCF82389105B1F1B0F48133910582
:1017300009F475C048F48932910509F469C08A3208
:10174000910509F473C008958533910509F459C0D2
:101750008933910501F10895833E9105A9F138F48B
:10176000803E9105F9F0823E910549F10895863E4B
:101770009105A9F1873E9105C9F1843E910519F5BE
:1017800020918C0321FF1FC080918B0384FD14C026
:1017900087EE90E0089520918B032370A1F080EEF6
:1017A00090E0089520918B0320FD47C030918C0379
:1017B00030FF09C024FF44C090E080E004C02091C5
:1017C0008B0322FDF7CF089520918B0322FD3BC0B0
:1017D00030918C0330FDE3CF24FFF5CFEDCF209186
:1017E0008B0323FFF0CF24FDE7CFD2CF20918B03D3
:1017F00023FD2CC030918C0331FFEECF84EE90E0BE
:10180000089520918B0325FFDECF89E290E00895B3
:1018100020918B0325FFD7CF85E390E00895209199
:101820008B0326FFD0CF8AE290E0089520918B03AE
:1018300026FFC9CF81E390E0089589E390E0089501
:1018400083EE90E0089582EE90E0089586EE90E0B9
:10185000089590918B0392FF06C0282F287128309D
:10186000F9F4877F846093FF06C0282F2871283100
:10187000F1F4877E846120918C0320FF06C0382F0D
:1018800038713830D9F4877F816021FF06C0282F56
:1018900028712831D1F4877E816194FD877E089577
:1018A000282F24712430F9F68B7F8860DCCF282F15
:1018B0002471243101F78B7E8861DDCF382F31719F
:1018C000313019F78E7F8860E0CF282F21712131C8
:1018D00021F78E7E8861E1CF0F931F93CF93DF9323
:1018E000C62FD42F022FFC0182818823C9F0609378
:1018F0006B020E94101C90936A028093690280E23E
:101900008C0F883008F050C0C77081E001C0880F8C
:10191000CA95EAF7DF91CF911F910F910C948B122A
:1019200010916B02161335C08091690290916A0282
:101930000E941C1C883C910560F5C0E2CD0F1D176C
:10194000B9F080E2810F883040F4177081E001C067
:10195000880F1A95EAF70E949212C83048F481E085
:101960009D2F977001C0880F9A95EAF70E948B12FD
:10197000802F0E947812C830B8F4D77081E001C07F
:10198000880FDA95EAF7DF91CF911F910F910C94B0
:10199000921280E28C0F883038F4C77081E001C069
:1019A000880FCA95EAF7EFCFDF91CF911F910F9182
:1019B00008959C01CB01233F4CE5340731F190F4AD
:1019C000283DFCE53F07E9F0293D4CE5340769F186
:1019D000273D3C4579F426E241EE61EE0E946C0C15
:1019E00080E00895253FFCE53F07B9F090F0263FE1
:1019F0003C45B9F0FC0182818823D1F010926B0242
:101A0000089527E245EE65EEE9CF26E241EE60EE6D
:101A1000E5CF27E245EE64EEE1CF26E241EE62EE4D
:101A2000DDCF27E245EE66EED9CF28E241E0EBCFED
:101A300081E00895CF93DF93EC01FB01828188233D
:101A400009F419C1C230FCE5DF07C0F1C6319CE5DD
:101A5000D90730F09E012A5F3C452930310570F5E9
:101A60000E94A81A90938C0380938B03C031ECE5FD
:101A7000DE0709F4CFC008F05BC0C8308CE5D8079A
:101A800009F4B6C088F5C430ECE5DE0709F4A8C057
:101A9000C0F4C2308CE5D80709F49CC080918B0358
:101AA0008260C330DC4509F498C080918B0390912B
:101AB0008C030E94B61A0E94D61480E0DF91CF9169
:101AC000089580918B038061C630ECE5DE0709F450
:101AD00084C080918B038860C730DC4508F47DC0EA
:101AE00080918B03806279C0CC308CE5D80709F4F3
:101AF00089C070F480918B038C60CA30ECE5DE07FE
:101B000009F46BC008F478C080918B038E7F65C0A8
:101B1000CE308CE5D80709F479C080918B038B7F98
:101B2000CF30DC4508F459C080918B038F7E55C0BF
:101B3000CB3FECE5DE0709F457C030F5C3318CE547
:101B4000D80709F46FC078F4C131ECE5DE0709F479
:101B500065C0C231DC4509F0A8CF0E94D61480913F
:101B60008B038F773AC0C5318CE5D80709F462C082
:101B700008F476C080918C038160CA3FDC4509F08F
:101B800094CF80938C0391CFCF3FFCE5DF0709F41E
:101B90004DC088F480918C038D7FCD3F9CE5D907A3
:101BA00081F380918C038E7FCE3FDC4550F3809192
:101BB0008C038360E6CFC130FDE5DF0709F459C02F
:101BC00008F444C080E0C230DD4509F06ECF0E94C9
:101BD000341B6BCF80918B03816080938B0365CF27
:101BE00080918B038460F9CF80918C038260C9CF90
:101BF00080918B038064F1CF0E94D61480918B0377
:101C00008068EBCF80918B038D7FE7CF80918B0332
:101C1000877FE3CF80918B038F7DDFCF80918B0314
:101C20008F7BDBCF80918B03837FD7CF80918C0319
:101C30008C7FA7CF80918B0382FB992790F921E0BD
:101C4000922790FB82F990FB83F9C7CF80918C0398
:101C5000982F909591708E7F892B90FB81F991CF71
:101C60000E94D61490918B03892F97FB87F9805897
:101C7000B4CF81E0ACCF81E021CFCF93DF93EB01F4
:101C800086319C4511F50E94EE199A81992399F0AD
:101C90008A7A91E009F490E090936C02811109C076
:101CA00089E20E94C9190E942D1A80E0DF91CF912C
:101CB000089585E3F6CF80916C02811104C089E21A
:101CC0000E94D019F0CF85E3FBCF81E0EFCF83E313
:101CD00090E02091BC0027FD02C00197D1F7089544
:101CE0001092B9008CE08093B8000895CF93C82F6C
:101CF00084EA8093BC000E94670E8091B900887FBF
:101D0000883041F08091B900887F803119F081E0FE
:101D1000CF910895C093BB0084E88093BC000E94DB
:101D2000670E8091B900887F883129F08091B900D1
:101D3000887F803461F780E0EBCF84E98093BC003A
:101D400083E390E02091BC0024FD02C00197D1F70D
:101D500008958093BB0084E88093BC000E94670EC6
:101D60009091B900987F81E0983209F480E008955D
:101D70001F921FB61F9211248F939F93EF93FF938F
:101D80008091B900887F8038C1F038F4882309F445
:101D90004BC0803679F081E022C0883A11F0883B50
:101DA000D1F7E0916E02F0E0E958FC4F808180931A
:101DB000BB0031C010926D02EECF80916D02811197
:101DC00022C08091BB0080936E0280916E028031B0
:101DD000C0F010926E0280E091E090936D029091BD
:101DE000BC008295880F880F807C892B8568809342
:101DF000BC00FF91EF919F918F911F901FBE1F908C
:101E0000189581E0E9CFE0916E02F0E08091BB008F
:101E1000E958FC4F808380916E0290E001968F70AC
:101E2000992780936E02B7CF1092BC00B4CF8EE199
:101E30004A9B02C08150E1F74A9BFECF08955A9811
:101E400080E28A95F1F75A9A0895FC013BE03A95B1
:101E5000F1F720E090E080E031E040E14A95F1F7D1
:101E6000880F4A9B02C08160232742E04A95F1F720
:101E7000000040E14A95F1F79F5F6913EECF90E1D2
:101E80009A95F1F799B132E03A95F1F7000040E107
:101E90004A95F1F792FB992790F992272081920FAA
:101EA00090830895EF92FF920F931F93CF93DF9348
:101EB0000F92CDB7DEB719828C017C01E60EF11CC2
:101EC0000E151F0561F481E09981911180E00F905A
:101ED000DF91CF911F910F91FF90EF9008950E9495
:101EE000170F68E0CE0101960E94250FF80181933B
:101EF0008F01E6CF909371028093700260936F021E
:101F0000529A5A9A08959093710280937002609346
:101F10006F0252985A9AEA9AE9E6F0E080818F7C43
:101F2000808308956150770B91E001C0990F6A9505
:101F3000EAF720E031E0911108C0222391F05A9A8B
:101F400080E28A95F1F75A980895492F482339F08D
:101F50005A9A232740E24A95F1F79695ECCF5A9882
:101F6000F9CF5A98EDCFFF920F931F93CF93DF9342
:101F7000EC018C01060F111DC017D10731F4DF9160
:101F8000CF911F910F91FF900895F9900E941F0F1C
:101F900068E08F2D0E94920FEFCF1F920F920FB625
:101FA0000F9211240F931F932F933F934F935F939F
:101FB0006F937F938F939F93AF93BF93EF93FF9311
:101FC000CF93DF930F92CDB7DEB719820E94170F20
:101FD00067E0CE0101960E94250F082F0695069511
:101FE0000695982F92959570202F2570920F292F86
:101FF0002370969596958770920F891344C08981B6
:10200000811141C080916F028017E8F120E12A958B
:10201000F1F75A9A529A82E08A95F1F700C0A8E047
:102020000A9FC00111240091700210917102080FE3
:10203000191F5A98F8016581662321F086819781DE
:102040000E94B30F0E941F0FF0E1FA95F1F75A9822
:1020500052985A9A20E12A95F1F7D80112966C917C
:102060001297662331F113968D919C910E94520F25
:10207000D801ED91FC91882311F088E001C082E045
:1020800080830E94170F0F90DF91CF91FF91EF9106
:10209000BF91AF919F918F917F916F915F914F9180
:1020A0003F912F911F910F910F900FBE0F901F9096
:1020B0001895ED91FC91E1CF0F931F93CF93DF9390
:1020C00020916F02281719060CF471C08C0193E05F
:1020D000000F111F9A95E1F7C0917002D091710223
:1020E000C00FD11FF894529A5A9825E02A95F1F71B
:1020F0000000982F969595708570980F892F8370A2
:1021000096959695980F092B0E941F0F00C067E0C7
:10211000802F0E94920F80E18A95F1F752985A9A87
:102120004A9B17C087E090E04A9915C06D816623ED
:1021300021F18E819F810E94520F81111EC0529AFF
:102140005A9AE881F98182E08083789482E090E075
:102150000DC000C0E5CF019771F4529A5A9AE881F8
:10216000F98181E08083789481E090E0DF91CF91E4
:102170001F910F91089500C0D7CF0E94170F20E242
:102180002A95F1F75A98529A80E18A95F1F76A8177
:10219000662321F08B819C810E94B30F0E941F0F48
:1021A000E881F9811082789490E080E0DFCF84E0CC
:1021B00090E0DCCF90937702809376020895E091CF
:1021C0007602F0917702309721F00190F081E02DB6
:1021D000099480E00895E0917602F09177023097BB
:1021E00021F00280F381E02D09940895E0917602B8
:1021F000F0917702309739F022E0DC012C930480D3
:10220000F581E02D099408952091740230917502B2
:102210002817390771F09093750280937402E0914A
:102220007602F0917702309721F00680F781E02D59
:10223000099408952091720230917302281739078A
:1022400071F09093730280937202E0917602F091A4
:102250007702309721F00084F185E02D09940895EC
:1022600085B7806885BF85B7806885BF0895089564
:1022700008950C94371108950C943B110E9430116D
:102280000E9438110C94391181E008950C94441186
:102290000E94071C0E946A060E94601C0C943C115C
:1022A000BF92CF92DF92EF92FF920F931F93CF9343
:1022B000DF93CDB7DEB72A970FB6F894DEBF0FBE17
:1022C000CDBF0E9480070E944611882309F45EC09A
:1022D00089E7C82E82E0D82E10E000E0B02E802FD3
:1022E0000E94E707E82EF601F1906F01F81609F455
:1022F00047C08091ED0281FD0E94ED079F2D9E2534
:1023000080E0FF24F394292F2F21B1F18E83BF8227
:10231000EF2081E009F480E088870E94101C816032
:10232000782F9A8789874E815F8168858A850E9488
:10233000E711F801E758FD4F8081F826F0820E94EE
:10234000ED1D0E94DF1090917802891781F10E94A3
:10235000DF10809378022A960FB6F894DEBF0FBE86
:10236000CDBFDF91CF911F910F91FF90EF90DF9044
:10237000CF90BF900C94520A8F5FFF0C863019F6F5
:102380000F5F1F4F0830110509F0A8CF8FEF898329
:102390008A831B820E94101C8160782F9D838C830E
:1023A00049815A816B818D810E94E711C8CF2A969D
:1023B0000FB6F894DEBF0FBECDBFDF91CF911F9156
:1023C0000F91FF90EF90DF90CF90BF900895CF9343
:1023D000DF93CDB7DEB72B970FB6F894DEBF0FBEF5
:1023E000CDBF4F83588769877A878B871E821D826E
:1023F00085E0FE013796DE01119601900D928A95D7
:10240000E1F749815A816B817C818D819E812B9678
:102410000FB6F894DEBF0FBECDBFDF91CF910C9405
:102420003A17FC01808191810C949B19CF93C82F9E
:10243000882369F18CEF8C0F813AA0F46C2F809186
:102440005D0190915E010E944B1B882329F08C2F27
:102450000E94D0190E942D1A8C2F0E94C919CF9169
:102460000C942D1A80E28C0F883048F4C77081E0FC
:1024700001C0880FCA95EAF70E94F119F0CFC03F5A
:1024800030F08C2F0E94FB1CCF910C94E21DCF9159
:102490000895882361F19CEF980F913A20F40E94EF
:1024A000D0190C942D1A90E2980F983050F4877040
:1024B00091E001C0990F8A95EAF7892F0E94F719D8
:1024C000F0CF9BE5980F933020F490E080E00C94DF
:1024D000041198E5980F973120F490E080E00C9477
:1024E0001A11803F20F00E94631D0C94E21D089594
:1024F000CF93C82F0E941612C93349F42FEF87EEED
:1025000093E0215080409040E1F700C000008C2F04
:10251000CF910C944912882321F00E94F1190C9458
:102520002D1A0895882321F00E94F7190C942D1A72
:102530000895BF92CF92DF92EF92FF920F931F9375
:10254000CF93DF936C01D62FC72FFC010581029535
:102550000F70128111110E940E1A0E94E719E82EC5
:10256000882391F01123E9F08C2F807F803421F0B3
:1025700080E28D0F8830A8F082E00E94781A0E94D5
:10258000E71991E0E82EE926BC2EB2949FE0B9222B
:10259000FBE0FB15A8F1EB2DF0E0E15EF64D0C94AD
:1025A000B525E12CF1CF0C2F0F70C07F11F00295F3
:1025B000007F1123A9F0002359F080E28D0F8830AD
:1025C00010F0D11109C0802F0E94F1190E942D1A1C
:1025D0008D2F0E94161214C0802F0E94011AF6CF70
:1025E0008D2F0E944912002359F080E28D0F883010
:1025F00010F0D1112CC0802F0E94F7190E942D1AC3
:102600002B2D2850330B2430310520F40E94DF108D
:102610000E94520AEE2009F472C10E94E31980FD63
:102620006EC1F60112820E94DD190E946618C60171
:102630000E94A0140E94DD19DF91CF911F910F918C
:10264000FF90EF90DF90CF90BF900C948718802F71
:102650000E94071AD3CF2C2F2F70F22EC07FC032CA
:1026600019F0F29480EFF822DD2369F0D13049F1BE
:10267000112391F1002351F1F601858180FFA8CF4C
:102680008F70858323C0112381F0011106C00E9441
:10269000141A8F290E948B12B3CF0130C1F70E9408
:1026A000141A8F290E941A1AABCF011106C00E947A
:1026B000231A8F2D0E949212A3CF013009F4A0CFCC
:1026C000F6CF112329F0063008F09ACF8F2DE2CFF4
:1026D000053008F095CFEDCF002359F3D93349F4F5
:1026E000FFEF27EE33E0F15020403040E1F700C02B
:1026F00000008D2F0E94491283CF8D2F112329F0C6
:102700000E94FB1C0E94E21D7BCF0E94631DFACF3A
:102710008C2F837009F041C0111172CF4D2F42955B
:1027200046954770440F440F0D2F0F7010E030E0B6
:1027300020E0042E04C0000F111F221F331F0A9433
:10274000D2F760E070E0CB01D4FF0FC06FE070E023
:1027500080E090E004C0660F771F881F991F4A959C
:10276000D2F76095709580959095C695C695C37083
:10277000602B712B822B932BC23049F058F4C1305F
:1027800019F00E94F8173CCF0E94E61739CF0E943B
:102790000A1836CF0E94E41733CF8695112311F023
:1027A0008C2F8170882309F42BCF4D2F42954695AD
:1027B0004770440F440F0D2F0F7010E030E020E001
:1027C000042E04C0000F111F221F331F0A94D2F7DA
:1027D00060E070E0CB01D4FF0FC06FE070E080E0FC
:1027E00090E004C0660F771F881F991F4A95D2F7A3
:1027F0006095709580959095C695C695C370602B31
:10280000712B822B932BC23049F058F4C13019F050
:102810000E94DD18F5CE0E94CB18F2CE0E94EF1870
:10282000EFCE0E942018ECCECF70112329F08C2F10
:102830000E9466188D2F2ECF8D2F0E9492128C2F02
:102840000E948718DDCED23F89F160F4D03FC9F0F5
:10285000D13F29F1112309F442C00111B9CE8C2FC7
:102860008F7121C0D33F39F1D43FA1F7112369F112
:10287000CF718C2F0E94661863E08C2F0E94631A20
:10288000BFCE112341F0053008F0BACE8C2F8F71E6
:102890000E94AA18B5CE063008F0B2CEF7CF8C2F22
:1028A0008F71112369F20E946618AACE8C2F8F7146
:1028B0001123C9F3C5CF112329F08C2F8F710E94EA
:1028C00051189ECE0E942C189BCE81E00E94781A4F
:1028D000023008F495CE82E00E94781A91CE00234F
:1028E00059F0D93309F005CF8FEF97EEE3E081502F
:1028F0009040E040E1F7FBCE8C2F8F71A1CFDF91AC
:10290000CF911F910F91FF90EF90DF90CF90BF90EC
:1029100008950F931F93CF93DF93EC016881798122
:102920008A810E94A5198C010E9401190E94E31757
:10293000B801CE01DF91CF911F910F910C949912A4
:10294000CF93DF93EC018B819C81892B29F08881C7
:10295000998189238F3F59F4DF91CF910895CE015A
:102960000E948914CE01DF91CF910C94360ACE01DA
:102970000E946A0A8111F3CF0E94E719882361F34C
:102980008A81882349F382E0DF91CF910C94781AF1
:102990000E940E1A0E94111A0E942D1A0E94071FEF
:1029A0000C94E21D0E94D7190C94C8140E94FE19C1
:1029B0000C94D214E92FE295EF70E250EE3070F4EF
:1029C000F0E0E55DF64D0C94B525803F19F020F45C
:1029D000883E20F481E00895843FE1F380E008958B
:1029E000883EC0F3813FD1F7F5CF93FB882780F96C
:1029F00008950E949B190C94DA14CF93DF9300D0B2
:102A000000D00F92CDB7DEB70F900F900F900F90C0
:102A10000F90DF91CF910895CF93DF9300D000D036
:102A200000D0CDB7DEB726960FB6F894DEBF0FBE46
:102A3000CDBFDF91CF9108951F93CF93DF93C091C6
:102A4000820216E0809183028C1304C0DF91CF9143
:102A50001F910895D0E01C9FF0011D9FF00D1124DF
:102A6000EC57FD4F40815181628173818481958152
:102A70000E940C152196C770E5CF4091B402509189
:102A8000B5026091B6027091B7028091B802909140
:102A9000B9020C940C151F93CF93DF938091B90268
:102AA000807FA9F48091B602882389F08091820208
:102AB000C09183026091B4027091B502A091B702F7
:102AC000B091B802D62FD72316E0C81304C0DF9107
:102AD000CF911F91089590E0109711F0DF3F19F406
:102AE00001968770F2CF189F9001199F300D112425
:102AF000F901EC57FD4F41814713F2CF4081461356
:102B0000EFCF42814111ECCF438154814A1B5B0BD3
:102B1000483C510528F78091B9028F7080618093FD
:102B2000B902F901E757FD4F80818F708061808382
:102B300084EB92E00E94A014DF91CF911F910C943E
:102B40001C15AF92BF92CF92DF92EF92FF920F933C
:102B50001F93CF93DF93CDB7DEB761970FB6F8948D
:102B6000DEBF0FBECDBF8C0185E0F801DE011D96F2
:102B700001900D928A95E1F7F80140815181E28040
:102B800084EBC82E82E0D82E6091B7027091B80213
:102B90006115710509F44FC19091B4022091B502FD
:102BA000892F82238F3F09F446C1A380B480F0901F
:102BB000B602F501E61BF70BFF2009F40AC180916C
:102BC000B902382F307FE83CF10508F0C0C0311160
:102BD00079C0FE2C251323C0941321C0E1101FC01F
:102BE0008F7080618093B9020E943D15C6010E94DA
:102BF000A0148091B902F80185838F2D61960FB6DC
:102C0000F894DEBF0FBECDBFDF91CF911F910F9122
:102C1000FF90EF90DF90CF90BF90AF900895AB28DA
:102C200029F0842F85238F3F09F021C180E0F82F00
:102C3000F170DF2E80FF3CC08091820220918302E0
:102C400036E0821315C04D875E878D859E850E9474
:102C50009B19292F22952F702230F0F0243018F57F
:102C60009F70F1F0F8019581907FD1F4D12C1EC0B6
:102C700090E0389FF001399FF00D1124EC57FD4F83
:102C80006181651306C06081641303C062816E11A7
:102C90000FC001968770D5CF9F7011F0882331F354
:102CA000805E883018F3C8010E94A014FD2CA5CFC7
:102CB000EE2009F4A2CF8091B90281608093B9021D
:102CC000F12C9BCF251314C0941312C0E11010C037
:102CD000F8018583C8010E94A01486E0F801A4EBE6
:102CE000B2E001900D928A95E1F70E943D1585CFE3
:102CF0004D875E878D859E850E94F914882319F182
:102D0000EE2009F18091B902803270F02091B40276
:102D10003091B50238872F831986BB86AA868C87A7
:102D2000CE0107960E94A01486E0F801A4EBB2E061
:102D300001900D928A95E1F70E944B150E943D1576
:102D4000FF24F3945ACFC8010E94A014F9CF311187
:102D500013C07A2DB98AA88A6E2D89890E94FD1424
:102D600084EB92E00E94A01486E0F60111928A950D
:102D7000E9F70E943D15A4CF25130FC094130DC091
:102D8000E1100BC0F8018583C8010E94A01486E001
:102D9000F60111928A95E9F730CF4D875E878D85D0
:102DA0009E850E94F914882371F2EE2061F28091D1
:102DB000B902803208F4B8CF2091B4023091B50244
:102DC0003A8329831B82BD82AC828E83CE01019619
:102DD000A9CFE83CF10510F5FE2CEE2009F4B3CFA5
:102DE00025130BC0941309C086E0F801A4EBB2E0F0
:102DF00001900D928A95E1F700CF4D875E878D8512
:102E00009E850E94F91481118FCF8091B902816053
:102E10008093B902C8010E94A014EFCE7A2DB98A1E
:102E2000A88A6E2D89890E94FD1486E0F601119210
:102E30008A95E9F75ACFEE2009F485CF4D875E8752
:102E40008D859E850E94F914F82E882309F47BCF86
:102E500086E0F801A4EBB2E001900D928A95E1F7CB
:102E600084EB92E00E9411120E944B153ECF81E04C
:102E70008E25DDCE1F93CF93DF93CDB7DEB72C9792
:102E80000FB6F894DEBF0FBECDBF4F83588769875A
:102E90007A878B879C87CE0107960E94A11588238D
:102EA00069F08A859B85892B39F04F815885842F5D
:102EB00085238F3F09F071C016E05FC086E0FE01F8
:102EC0003796DE01119601900D928A95E1F78A8579
:102ED0009B85892B89F38F81988589238F3F61F3A7
:102EE0002091830230E0C9010196877099274091B3
:102EF00082024817190671F40E94D61410928302B8
:102F00001092820286E0E4EBF2E0DF011D928A95E6
:102F1000E9F7D2CF96E0929FD001939FB00D112494
:102F2000AC57BD4FFE01319601900D929A95E1F795
:102F3000809383020E941C15BFCF819FC001112482
:102F40008C579D4F0E94A1158823E9F0E0918202E1
:102F50001E9FF0011124EC57FD4F40815181628189
:102F60007381848195810E940C158091820290E08A
:102F700001968770992780938202809182029091B6
:102F800083028913DACF2C960FB6F894DEBF0FBEFA
:102F9000CDBFDF91CF911F91089569857A858B858B
:102FA0009C850E940C1588CF08950C94D4170E941C
:102FB000D5176093DC027093DD028093DE0290935C
:102FC000DF020C94C81408950C94D7170F931F9325
:102FD0000091DC021091DD022091DE023091DF02CF
:102FE000602B712B822B932B1F910F910C94D71771
:102FF0000F931F930091DC021091DD022091DE02FD
:103000003091DF0260237123822393231F910F915C
:103010000C94D7170F931F930091DC021091DD02DF
:103020002091DE023091DF026027712782279327EB
:103030001F910F910C94D7170C94D4170C941C1853
:103040000E941E186093D8027093D9028093DA020E
:103050009093DB020C94C81460E070E0CB010C94F8
:103060002018611571058105910529F481E044233B
:1030700061F080E00895DC01CB0104C0B695A7950E
:10308000979587954A95D2F781700895482F60915A
:10309000D8027091D9028091DA029091DB020C94EF
:1030A00031180F931F9341E050E060E070E08A0117
:1030B0009B0104C0000F111F221F331F8A95D2F7F6
:1030C000C901B8011F910F910C9420180F931F9301
:1030D00041E050E060E070E004C0440F551F661FFF
:1030E000771F8A95D2F78091D8029091D902A0914A
:1030F000DA02B091DB028A019B01082B192B2A2BE3
:103100003B2BC901B8011F910F910C9420180F930C
:103110001F9341E050E060E070E004C0440F551F91
:10312000661F771F8A95D2F7CB01BA01609570951B
:10313000809590950091D8021091D9022091DA02E1
:103140003091DB0260237123822393231F910F911F
:103150000C9420180F931F9341E050E060E070E062
:1031600004C0440F551F661F771F8A95D2F78091C0
:10317000D8029091D902A091DA02B091DB028A01C3
:103180009B01082719272A273B27C901B8011F914E
:103190000F910C9420180F931F930091D802109157
:1031A000D9022091DA023091DB02602B712B822B45
:1031B000932B1F910F910C9420180F931F93009144
:1031C000D8021091D9022091DA023091DB026023FB
:1031D0007123822393231F910F910C9420180F9336
:1031E0001F930091D8021091D9022091DA023091F8
:1031F000DB0260277127822793271F910F910C9480
:1032000020180895E92FEE0FE90FEE0F8E0F982F7B
:10321000977041E001C0440F9A95EAF7869586952C
:10322000869595E0899FF0011124E654FD4F30E02A
:1032300020E070E05191DF011197CB01022E02C016
:10324000969587950A94E2F7817081958527842366
:1032500085278C932F5F3F4F2530310559F708950F
:10326000E92FEE0FE90FEE0F8E0F982F97708695CE
:103270008695869525E0829FF0011124E654FD4F46
:1032800050E040E080E0219130E0092E02C0369508
:1032900027950A94E2F721703327042E01C0220FEC
:1032A0000A94EAF7822B4F5F5F4F4530510559F77B
:1032B0000895BF92CF92DF92EF92FF920F931F93E8
:1032C000CF93DF938C01C090D802D090D902E090C8
:1032D000DA02F090DB028091DC029091DD02A09195
:1032E000DE02B091DF02C82AD92AEA2AFB2ACFE1FE
:1032F000D0E0BC2ED701C6010C2E04C0B695A79510
:10330000979587950A94D2F780FD0EC0219788F78C
:10331000B12C8B2DDF91CF911F910F91FF90EF90EA
:10332000DF90CF90BF900895B8018C2F0E94BA0A09
:10333000019761F3EECFCF93DF93EC010E9459190F
:10334000BE01DF91CF910C94BA0A1F93CF93DF9304
:10335000EB0190918102992331F0CB01DF91CF9164
:103360001F910C949B19882379F0CB010E94591965
:10337000182F682FCE010E940219BE01812FDF9104
:10338000CF911F910C94BA0ACB010E943019182FCB
:10339000F4CF682F80915D0190915E010C94811BA8
:1033A000682F80915D0190915E010C94831B809148
:1033B0005D0190915E010C94851B8091E0028595E2
:1033C0008595859508958091E00287700895909184
:1033D000E002977081E009F480E008958091EC02AA
:1033E00008959091EC02892B8093EC0208958095CA
:1033F0009091EC0298239093EC0208951092EC02C5
:1034000008959091EB02892B8093EB0208958095AB
:103410009091EB0298239093EB0208951092EB02A7
:1034200008951092EA0208958091E10208950895A6
:103430000C94171A9091E102981721F08093E10201
:103440000C94181A08958091E102882329F01092B3
:10345000E10280E00C94181A0895E0915D01F0916A
:103460005E018091EC028083E0915D01F0915E014C
:1034700080819091EB02892B8083E0915D01F09136
:103480005E0180819091EA02892B80839091E10214
:10349000992381F0E0915D01F0915E018081892B9B
:1034A000808380915D0190915E010E94391B8111A2
:1034B0000E94231A80915D0190915E010C94EB10A3
:1034C00008950C94601A98E0899F90011124622B52
:1034D0006093E0020E9466188091E00285958595D0
:1034E00085950C94611A1092E00280E00C94611AA8
:1034F0009091E002809589238093E002282F277025
:1035000071F4282F082E000C330B9217130639F094
:103510008595859585950E9487180C94731A089552
:1035200090E080E00E94AC2821E08C3E9E4F09F0A4
:1035300020E0822F089582E090E00C94A42883E09C
:1035400090E00C94A428682F83E090E00C94B228BB
:10355000CF9384E090E00E94A428C82F81E290E0FD
:103560000E94A428982F8C2FCF910895CF93C92F14
:10357000682F84E090E00E94B2286C2F81E290E0F6
:10358000CF910C94B228AB01BC018FE090E00C9479
:10359000C428AB01BC0183E190E00C94C42860E036
:1035A00070E0CB010C94C91A60E070E0CB010E947E
:1035B000C31A0C94CF1A6CEE7EEF90E080E00E946C
:1035C000D02860E082E090E00E94B22860E083E0D2
:1035D00090E00E94B2281092DC021092DD0210925C
:1035E000DE021092DF0260E084E090E00E94B228E8
:1035F00060E081E290E00E94B22860E085E090E027
:103600000E94B22860E086E090E00E94B2286FEF4E
:1036100087E090E00E94B22840E050E0BA0188E0E4
:1036200090E00E94C42860E08DE090E00E94B22803
:1036300040E050E0BA0188E190E00E94C42860E0D8
:1036400087E190E00E94B22840E050E0BA018CE1AE
:1036500090E00E94C42860E080E290E00E94B228DE
:103660000C94D41A0C94DB1A682F8EE090E00C9422
:10367000B2289C012E5F3F4FAC01485F5F4F80E056
:103680002417350709F40895F90191919F019923B1
:10369000B9F38F5FF5CF662349F0FC0132960896A7
:1036A0002191261729F0E817F907D1F780E008954E
:1036B00081E008959C01FC0132969FEF80E04191EA
:1036C000461751F09F3F19F4411101C0982F8F5FA9
:1036D0008630A9F79F3F09F40895290F311D97FD02
:1036E0003A95F90162830895FC013296089621917A
:1036F000261303C0DF0111971C92E817F907B9F7E9
:1037000008950C945A1B0C94741B029626E0FC013D
:1037100011922A95E9F70895089508950C948D1B48
:103720000E948E1B80919103843049F11092EE0229
:1037300088E190E020E40FB6F894A89580936000AB
:103740000FBE2093600080E00E94520A0E948E1BF0
:1037500083B7817F846083BF83B7816083BF7894A0
:10376000889583B78E7F83BF0FB6F894A895809114
:103770006000886180936000109260000FBE089521
:103780000895CF930E948C1B0E9480070E94C01B4B
:10379000C0E08C2F0E94E707811105C0CF5FC830C1
:1037A000C1F7CF91089581E0FCCF08950C94D51B0B
:1037B0000E94D6140E94DF100E94520A0C94D61B5D
:1037C0001F921FB61F9211248F939F93AF93BF93A5
:1037D0008091EE02811113C080918703909188033C
:1037E000A0918903B0918A034196A11DB11D8093D8
:1037F000870390938803A0938903B0938A03BF91B2
:10380000AF919F918F911F901FBE1F90189582E0DE
:1038100084BD93E095BD9AEF97BD80936E000895A7
:103820002FB7F8948091870390918803A091890322
:10383000B0918A032FBF08959C014FB7F8948091EF
:10384000870390918803A0918903B0918A034FBFA9
:10385000821B930B089578941F921FB61F92112418
:103860008F939F93AF93BF93809187039091880329
:10387000A0918903B0918A030196A11DB11D809387
:10388000870390938803A0938903B0938A03BF9121
:10389000AF919F918F911F901FBE1F90189587E742
:1038A00097E7909301088093000888E19AE00FB6AB
:1038B000F894A895809360000FBE90936000FFCFAE
:1038C0000E94901A811102C00E94321B0E949B1A12
:1038D0008093ED020E94A81A90938C0380938B032F
:1038E0000E949F1A682F70E090E080E00C94E4172B
:1038F0008091F60280FF12C06091640185E0689FAC
:10390000B0011124759567957595679560387105B7
:10391000A8F561157105A1F1862F089581FF09C0F1
:103920006091640185E0689FB001112475956795E9
:10393000EDCF6091640182FD0AC08091F502882379
:10394000D1F09091630160916401891728F085E0BE
:10395000689FB0011124DACF869FB001112485E061
:10396000869F9001879F300D1124692F70E0C90157
:103970000E94A125CBCF65E070E0CECF8FE7089500
:1039800081E008958091F60280FF0CC06091600193
:1039900070E075956795759567956115710549F1A5
:1039A000862F089581FF06C06091600170E07595D3
:1039B0006795F3CF6091600182FD0BC09091F50295
:1039C0009923A1F060915F0180916001961738F012
:1039D000682F70E06038710500F38FE70895899FC4
:1039E000C001112470E00E94A125F4CF61E070E0D5
:1039F000D7CF81E00895803F31F40E94781C8195F3
:103A00008093FA020895813F19F40E94781CF8CF40
:103A1000823F31F40E94781C81958093F9020895C9
:103A2000833F19F40E94781CF8CF893F29F40E9443
:103A3000C21C8093FB0208958A3F21F40E94C21C9D
:103A40008195F7CF8B3F31F40E94C21C8195809302
:103A5000FC0208958C3F19F40E94C21CF8CF843FE9
:103A600031F48091F80281608093F8020895853FD7
:103A700021F48091F8028260F7CF863F21F4809193
:103A8000F8028460F1CF873F21F48091F8028860CA
:103A9000EBCF883F21F48091F8028061E5CF8D3F24
:103AA00031F48091F60281608093F60208958E3F92
:103AB00021F48091F6028260F7CF8F3FB9F78091B1
:103AC000F6028460F1CF9091F902803F41F4809139
:103AD000FA0287FD1092FA02992371F00895813F4E
:103AE00029F48091FA021816ACF3F6CF823F81F4E4
:103AF00097FFF2CF1092F9028091FA029091FB02A7
:103B0000892B9091FC02892B49F71092F5020895B8
:103B1000833F19F4191674F3DFCF893F39F480918C
:103B2000FB021816CCF61092FB02D6CF8A3F29F47E
:103B30008091FB0287FFD0CFF6CF8B3F39F4809185
:103B4000FC0287FFC9CF1092FC02C6CF8C3F29F43C
:103B50008091FC021816BCF3BFCF843F31F48091F2
:103B6000F8028E7F8093F802B7CF853F21F48091D1
:103B7000F8028D7FF7CF863F21F48091F8028B7F8A
:103B8000F1CF873F21F48091F802877FEBCF883F08
:103B900021F48091F8028F7EE5CF8D3F31F4809142
:103BA000F6028E7F8093F60297CF8E3F21F48091AC
:103BB000F6028D7FF7CF8F3F09F08ECF8091F6020E
:103BC0008B7FF0CF87EF92E00E94F6100E94101CCE
:103BD0009093F4028093F3020895CF93DF9300D083
:103BE00000D000D0CDB7DEB786E0E7EFF2E0DE012F
:103BF000119601900D928A95E1F78091F9029091CA
:103C0000FA02892B81F08091F1029091F2020E94D8
:103C10001C1CAC019091F502992331F18091650152
:103C20008417150670F18091FB029091FC02892B9C
:103C300091F08091EF029091F0020E941C1CAC0167
:103C40009091F502992309F478C08091610184175D
:103C5000150608F480C026960FB6F894DEBF0FBE96
:103C6000CDBFDF91CF910895209166018AE0289F12
:103C70009001112424173507B0F69F5F9093F50249
:103C800002C09F3FD1F71092FB021092FC0280917C
:103C9000F902181624F40E94781C8093F90280918E
:103CA000F90287FF05C00E94781C81958093F90274
:103CB0008091FA02181624F40E94781C8093FA026C
:103CC0008091FA0287FF05C00E94781C819580933D
:103CD000FA023091F9023323A1F02091FA02222353
:103CE00081F045EB3403C00111249923F1F0909346
:103CF000F90245EB2403900111243323D1F03093D2
:103D0000FA020E94E21D8091F3029091F4029093D6
:103D1000F2028093F10286E0FE013196A7EFB2E055
:103D200001900D928A95E1F77ECF81E08093F902B0
:103D3000E0CF81E08093FA02E4CF209162018AE033
:103D4000289F900111242417350708F084CF9F5F26
:103D50009093F50202C09F3FD1F71092F9021092A2
:103D6000FA028091FB02181624F40E94C21C809370
:103D7000FB028091FB0287FF05C00E94C21C819557
:103D80008093FB028091FC02181624F40E94C21C4E
:103D90008093FC028091FC0287FF05C00E94C21C38
:103DA00081958093FC023091FB023323A1F0209196
:103DB000FC02222381F045EB3403C0011124992336
:103DC000F1F09093FB0245EB24039001112433237F
:103DD000D1F03093FC020E94E21D8091F302909199
:103DE000F4029093F0028093EF0286E0FE01319698
:103DF000A7EFB2E001900D928A95E1F72CCF81E018
:103E00008093FB02E0CF81E08093FC02E4CF86E068
:103E1000E7EFF2E0DF011D928A95E9F71092F502D3
:103E20001092F60208958091050308950895CF93A6
:103E3000DF93EC010E94F320823011F08430F9F41A
:103E400082E08093E9008FEF9091E800815095FD2A
:103E500006C095ED9A95F1F700008111F5CF80919C
:103E6000E80085FF0CC050E040E066E070E0CE0165
:103E70000E9410218091E8008E778093E800DF9106
:103E8000CF910895CF93DF93EC010E94F32082300D
:103E900011F0843039F581E08093E9008FEF909143
:103EA000E800815095FD06C095ED9A95F1F7000068
:103EB0008111F5CF8091E80085FF14C050E040E00B
:103EC00068E070E0CE010E9410218091E8008E77BA
:103ED0008093E80088E0FE01ADEFB2E001900D9222
:103EE0008A95E1F7DF91CF9108950895809190032D
:103EF000811109C00E94A0220E94FD228091E2004F
:103F000084608093E20008951092900308950895CC
:103F100008950C94D81B42E061EC81E00E941C22C1
:103F200042E261EC82E00C941C2280919303833086
:103F300009F45FC030F48130C1F1823009F49BC0D4
:103F400008958A3009F487C08B3009F46DC0893038
:103F500009F04EC080919203813209F049C08091EE
:103F6000960390919703029708F042C08091E80071
:103F7000877F8093E8008091E80082FF35C09091B0
:103F8000F3008091F200029729F48091F1008B7F79
:103F9000813021F48091F100809305038091E80045
:103FA0008B778093E8000C94502280919203813AA1
:103FB000F9F48091E800877F8093E8008091960370
:103FC00090919703892B61F468E08DEF92E070E0A7
:103FD0000E945F218091E8008B778093E80008952C
:103FE00060E090E080E0F3CF809191038111C3CF36
:103FF000089580919203813AD9F780919603909128
:104000009703892BA9F78091E800877F8093E800C8
:104010008091E80080FFFCCF809171018093F100D6
:104020008091E8008E77BDCF80919203813201F7B5
:104030008091960390919703892BD1F68091E800A7
:10404000877F8093E8000E945022809194038093A0
:1040500071010C94D61480919203813249F68091BB
:10406000E800877F8093E8000E94502280919503AA
:1040700080930603089580919203813A09F0B8CFA6
:104080008091E800877F8093E8008091E80080FFBE
:10409000FCCF80910603C2CF84B7877F84BF0FB661
:1040A000F894A895809160008861809360001092D8
:1040B00060000FBE80E890E00FB6F8948093610036
:1040C000909361000FBE0E943E110E94A0220E94A8
:1040D000FD228091E20084608093E20078940E9447
:1040E00086250E94481187E691E00E94DA108091AF
:1040F0009103853019F00E945011F9CF0E94901B56
:1041000080918F03882399F30E94C11B882379F340
:104110000E94FA20ECCF0C948D20292F33272330D6
:10412000310519F168F42130310509F44AC0223013
:10413000310509F44BC090E080E030E020E028C079
:104140002132310579F122323105A9F780E490E07E
:1041500024E838E061157105D9F08FE490E025E39B
:1041600038E061307105A1F0E6CF992781309105E3
:1041700099F0009741F08230910589F00397D9F6C4
:10418000ECE9F7E002C0E4EEF7E0849190E09F01F3
:10419000FA01318320830895E2EDF7E0F6CFE2EAF9
:1041A000F7E0F3CF89E090E02AEF37E06115710581
:1041B00079F389E090E023E138E06130710541F363
:1041C000BACF82E190E023E238E0E2CF8BE390E0E7
:1041D00028EE37E0DDCF80919103843011F482E046
:1041E000089581E0089580910703811102C00C9425
:1041F000EB20089580E189BD82E189BD09B400FE0C
:10420000FDCF8091D8008F7D8093D8008091E00011
:1042100082608093E0008091E00081FDFCCF0895F2
:10422000AF92BF92CF92DF92FF920F931F93CF93E3
:10423000DF936C01EB018A010E946F22F82E81113D
:1042400023C00115110539F0F80180819181C81B47
:10425000D90BC80ED91EB12CA12C2097A9F08091A2
:10426000E80085FD22C08091E8008E778093E80009
:1042700001151105A1F0F80180819181A80EB91EE8
:10428000B182A08285E0F82E8F2DDF91CF911F9112
:104290000F91FF90DF90CF90BF90AF9008950E9454
:1042A0006F228823D1F2F82EEFCFF60181916F01B2
:1042B0008093F1002197FFEFAF1ABF0ACECFFC0128
:1042C000809198039091990386179707A0F0611544
:1042D000710529F49091E8009E779093E80090E0B2
:1042E0006115710551F4911108C08091E80082FFB9
:1042F00034C080E00895BC01F2CF809191038823FF
:10430000C1F18530C1F18091E80083FD30C080911A
:10431000E80082FDEACF8091E80080FFE1CF809144
:10432000F3002091F200382F6115710519F0283043
:10433000310558F091E02830310509F090E02091E6
:10434000E8002E772093E800CBCF81918093F10095
:10435000615071092F5F3F4FE7CF80919103882310
:1043600041F0853041F08091E80083FFBECF81E0CD
:10437000089582E0089583E00895FC0180919803F8
:104380009091990386179707A0F06115710529F49C
:104390008091E8008E778093E80090E061157105C8
:1043A00051F4911108C08091E80082FF35C080E08F
:1043B0000895BC01F2CF809191038823C9F1853023
:1043C000C9F18091E80083FD31C08091E80082FD51
:1043D000EACF8091E80080FFE1CF8091F300209147
:1043E000F200382F6115710519F02830310558F0A9
:1043F00091E02830310509F090E08091E8008E7757
:104400008093E800CBCF84918093F1003196615086
:1044100071092F5F3F4FE6CF80919103882341F0D0
:10442000853041F08091E80083FFBDCF81E00895A1
:1044300082E0089583E00895982F973028F08F70D8
:104440008093E90081E008959093E900242F762F6E
:1044500050E0981731F07091EC002091ED005091F0
:10446000F00021FD02C09F5FE8CF3091EB003E7F5E
:104470003093EB003091ED003D7F3093ED003091B3
:10448000EB0031603093EB007093EC002093ED0073
:104490005093F0002091EE0027FDE5CF80E00895D5
:1044A0008091920387FF13C08091E80082FF06C0CD
:1044B0008091E8008B778093E80004C0809191039D
:1044C0008111F2CF0895809191038823D9F38091CF
:1044D000E80080FFF8CF8091E8008E77ECCF209144
:1044E000E4003091E50095E6A9012091EC00822FCF
:1044F000817020FF06C08091E80080FF06C080E048
:1045000008952091E80022FD1AC08091910388232C
:1045100089F0853089F08091EB0085FD0FC02091F6
:10452000E4003091E50042175307F9F29150E1F6AB
:1045300084E0089582E0089583E0089581E008957D
:104540000E940E230E941623E0EEF0E0808181603D
:104550008083E8EDF0E080818F77808319BCA7ED40
:10456000B0E08C918E7F8C9380818F7E80831092BF
:10457000900308950F931F93CF93DF930E940E2310
:104580000E941623C8EDD0E088818F7788838881C8
:104590008068888388818F7D888319BC10929103FD
:1045A00010928D0310928F0310928E0300EE10E094
:1045B000F80180818B7F808388818160888342E0DD
:1045C00060E080E00E941C22E1EEF0E080818E7FBE
:1045D0008083E2EEF0E0808181608083808188606A
:1045E0008083F80180818E7F8083888180618883C9
:1045F000DF91CF911F910F910895E8EDF0E0808158
:104600008F7E8083E7EDF0E080818160808384E0AD
:1046100082BF81E0809390030C94BA22E8EDF0E031
:1046200080818E7F80831092E20008951092DA00DC
:104630001092E10008951F920F920FB60F9211246D
:104640002F933F934F935F936F937F938F939F939A
:10465000AF93BF93EF93FF938091E10082FF0BC074
:104660008091E20082FF07C08091E1008B7F809300
:10467000E1000E9485258091DA0080FF19C08091B9
:10468000D80080FF15C08091DA008E7F8093DA0019
:104690008091D90080FF96C080E189BD82E189BD0B
:1046A00009B400FEFDCF81E0809391030E94761F44
:1046B0008091E10080FF19C08091E20080FF15C069
:1046C0008091E2008E7F8093E2008091E200806121
:1046D0008093E2008091D80080628093D80019BC5A
:1046E00085E0809391030E94881F8091E10084FF00
:1046F0002BC08091E20084FF27C080E189BD82E168
:1047000089BD89B5982F917080FFFBCF8091D8002B
:104710008F7D8093D8008091E1008F7E8093E100AF
:104720008091E2008F7E8093E2008091E2008160C0
:104730008093E20080918D03882309F449C084E0CE
:10474000809391030E94891F8091E10083FF29C01B
:104750008091E20083FF25C08091E100877F8093F4
:10476000E10082E08093910310928D038091E1003B
:104770008E7F8093E1008091E2008E7F8093E20043
:104780008091E20080618093E20042E060E080E09E
:104790000E941C228091F00088608093F0000E94AB
:1047A000871FFF91EF91BF91AF919F918F917F9163
:1047B0006F915F914F913F912F910F900FBE0F908E
:1047C0001F90189519BC109291030E94841F70CFFE
:1047D0008091E30087FD93E090939103B3CF1F9204
:1047E0000F920FB60F9211242F933F934F935F9325
:1047F0006F937F938F939F93AF93BF93CF93DF93E9
:10480000EF93FF93D091E900DF708091EC00C82F07
:10481000C17080FDC0E81092E9008091F000877FB0
:104820008093F00078940E9433241092E9008091E4
:10483000F00088608093F000CD2BCF70C093E9002A
:10484000FF91EF91DF91CF91BF91AF919F918F91A8
:104850007F916F915F914F913F912F910F900FBE7C
:104860000F901F9018951F93CF93DF93CDB7DEB7AE
:10487000AA970FB6F894DEBF0FBECDBF82E993E0D2
:104880002091F100FC012193CF01F3E08A399F07C9
:10489000B9F70E94951F8091E80083FF1EC18091A7
:1048A0009203909193039A3008F017C1E92FF0E03A
:1048B000E75CF64D0C94B525803899F0823809F004
:1048C0000CC1809196038F70873008F006C18093E9
:1048D000E9008091EB0085FB882780F91092E900C0
:1048E00006C080918E0390918F0391118260909108
:1048F000E800977F9093E8008093F1001092F10018
:104900008091E8008E77E5C0882309F4D3C0823017
:1049100009F0E3C0809194038111D6C08091960381
:104920008F702FEF280F263008F0D7C08093E90052
:104930002091EB0020FFC8C0933031F48091EB0050
:1049400080628093EB00C0C09091EB0090619093E7
:10495000EB0021E030E001C0220F8A95EAF72093B6
:10496000EA001092EA008091EB008860EACF8111A2
:10497000B4C0109194031F778091E3008078812B5D
:104980008093E3008091E800877F8093E8000E9495
:1049900050228091E80080FFFCCF8091E300806886
:1049A0008093E30082E0111183E08093910395C02E
:1049B0008058823008F091C08091940390919503C3
:1049C0008C3D23E09207A1F583E08A838AE2898304
:1049D0004FB7F894DE01139620E03EE051E2E32F5A
:1049E000F0E050935700E49120FF03C0E295EF7090
:1049F0003F5FEF708E2F90E0EA30C0F0C7968D9346
:104A00009D932F5F243159F74FBF8091E800877F36
:104A10008093E8006AE270E0CE0101960E945F2177
:104A20008091E8008B778093E80057C0C096E7CF6D
:104A30006091960370919703AE014F5F5F4F0E94A4
:104A40008B20BC01892B09F448C09091E800977F26
:104A50009093E80089819A810E94BD21E1CF80383E
:104A6000E1F58091E800877F8093E80080918D03D5
:104A70008093F10045CF811130C090919403923022
:104A800060F58091E800877F8093E80090938D0324
:104A90000E94502280918D03882311F084E005C08C
:104AA0008091E30087FDFACF81E0809391030E941B
:104AB0008B1F13C080919403813079F481E093308F
:104AC00009F080E080938F031092E9008091E80064
:104AD000877F8093E8000E9450228091E80083FF46
:104AE0000AC08091E800877F8093E8008091EB0006
:104AF00080628093EB00AA960FB6F894DEBF0FBEDB
:104B0000CDBFDF91CF911F9108950895CF938091EC
:104B100091038823A1F0C091E900CF709091EC003F
:104B2000892F817090FD80E8C82B1092E900809158
:104B3000E80083FD0E943324CF70C093E900CF9139
:104B4000089597FB072E16F4009407D077FD09D03F
:104B50000E94BB2507FC05D03EF4909581959F4FA0
:104B60000895709561957F4F0895EE0FFF1F059092
:104B7000F491E02D0994AA1BBB1B51E107C0AA1FA9
:104B8000BB1FA617B70710F0A61BB70B881F991FEE
:104B90005A95A9F780959095BC01CD010895FB0128
:104BA000DC0104C08D910190801921F441505040E6
:104BB000C8F7881B990B08956817790768F4FB01FB
:104BC000DC01E40FF51FA40FB51F02C002900E9286
:104BD00041505040D8F708950C940228DC0101C0E0
:104BE0006D9341505040E0F70895FB01DC010190C6
:104BF0000D920020E1F70895AEE0B0E0E2E0F6E2C9
:104C00000C94F4280D891E898F89988D26E02C83B9
:104C10001A83098397FF02C080E090E801979E8382
:104C20008D83AE01455E5F4F698D7A8DCE01019611
:104C30000E942C264D815E8157FD0AC02F81388548
:104C4000421753070CF49A01020F131FF801108248
:104C50002E96E4E00C941029ABE0B0E0E2E3F6E23B
:104C60000C94E6287C013B018A01FC011782168224
:104C7000838181FFB9C19AE0292ECE0101965C01A2
:104C8000F7019381F30193FD859193FF81913F019A
:104C9000882309F446C1853239F493FD859193FF49
:104CA00081913F01853229F4B70190E00E941628D6
:104CB000E7CF912C412C512CFFE1F51538F08B32C8
:104CC00009F188F4803201F1833221F157FC3AC0B6
:104CD00020ED280F2A3040F556FE1FC0929C200D73
:104CE0001124922E06C08D3291F0803379F76894AA
:104CF00050F8F30193FD859193FF81913F0181115C
:104D0000DBCF20C0689451F8689452F8F2CF6894D1
:104D100053F8EFCF689454F8ECCF429C200D112447
:104D2000422E689455F8E5CF8E3229F456FCF9C02E
:104D3000689456F8DECF8C3619F4689457F8D9CFBA
:104D40008836B9F2982F9F7D95549330C0F0833602
:104D5000A1F18337C1F1833509F05BC0F801C1903F
:104D6000D1908F01692D70E056FC02C06FEF7FEF8C
:104D7000C6010E94F7274C01689457F80AC00C5FDF
:104D80001F4F2FE3298388248394912C6501E89495
:104D900057F853FC04C04814190409F018F5342CD2
:104DA0008114910431F5332009F46ACFB70180E210
:104DB00090E00E9416283A94F6CFF801808189830A
:104DC0000E5F1F4FE0CFF801C190D1908F01692D88
:104DD00070E056FC02C06FEF7FEFC6010E940B2807
:104DE0004C01D5CFB70180E290E00E9416284A948A
:104DF000D2CFF60157FC859157FE81916F01B70123
:104E000090E00E94162831103A94F1E08F1A910830
:104E1000C7CF843619F0893609F074C0F80157FEFF
:104E20006AC061917191819191918F01252D2F76A9
:104E3000D22E97FF09C090958095709561957F4F10
:104E40008F4F9F4F6894D7F82AE030E0A5010E9469
:104E50004628C82ECA188C2C5D2CD6FE0CC0E894AF
:104E600050F8C91440F4D4FE05C0D2FC03C0FD2D97
:104E7000FE7E5F2E892C54FE8FC0FE01EC0DF11DCD
:104E80008081803309F081C0252D297E522E852D09
:104E90008870382E53FC8FC050FE89C09C2C84141F
:104EA00018F44C0C942C981854FE8BC0B70180E376
:104EB00090E00E94162852FE09C088E790E051FE5B
:104EC00002C088E590E0B7010E941628C91408F4D2
:104ED00084C0CA94D12C9FEFC91AD90ACA0CDB1C12
:104EE000F60182916F01B70190E00E941628AC1480
:104EF000BD04B1F758CF61917191072E000C880B5A
:104F0000990B93CFD52CE894D4F82AE030E085377C
:104F100039F1952D997FD92E8F3601F148F48835D6
:104F2000A9F0F701868197812B96E2E10C94022982
:104F3000803749F08837A9F7D4FE02C06894D2F8C8
:104F400020E130E00DC06894D4F8F6CF54FE03C0E1
:104F5000E92FE660DE2E20E132E002C028E030E0FA
:104F6000F801D7FE0DC061917191819191918F01EE
:104F7000A5010E944628C82ECA18E894D7F86BCF1E
:104F80006191719190E080E0F2CF52FC02C0839475
:104F90007ECF839483947BCF852D867809F477CF59
:104FA000F6CFB70180E290E00E9416288394841423
:104FB000C0F3312C79CF342C3818841408F474CF12
:104FC000F8CF852D867809F481CF8BE251FE80E2FF
:104FD00057FC8DE2B70190E077CFB70180E390E016
:104FE0000E9416289A9472CF8FEF9FEF9DCFFC01FD
:104FF0000590615070400110D8F7809590958E0F04
:105000009F1F0895FB01DC0102C001900D924150E9
:105010005040D8F70895FC01615070400190011094
:10502000D8F7809590958E0F9F1F08950F931F932B
:10503000CF93DF93182F092FEB018B8181FD09C0DE
:105040001FEF0FEF812F902FDF91CF911F910F91C5
:10505000089582FF14C02E813F818C819D81281785
:1050600039073CF4E881F981CF010196998388835F
:1050700010838E819F8101969F838E83E3CFE88585
:10508000F985812F0995892BA1F3DACFFA01AA2797
:10509000283051F1203181F1E8946F936E7F6E5F7B
:1050A0007F4F8F4F9F4FAF4FB1E03ED0B4E03CD029
:1050B000670F781F891F9A1FA11D680F791F8A1F0C
:1050C000911DA11D6A0F711D811D911DA11D20D073
:1050D00009F468943F912AE0269F11243019305D2D
:1050E0003193DEF6CF010895462F4770405D41931E
:1050F000B3E00FD0C9F7F6CF462F4F70405D4A336B
:1051000018F0495D31FD4052419302D0A9F7EACF32
:10511000B4E0A6959795879577956795BA95C9F761
:1051200000976105710508959B01AC010A2E069454
:105130005795479537952795BA95C9F7620F731F0D
:10514000841F951FA01D0895F999FECF92BD81BDC2
:10515000F89A992780B50895A8E1B0E042E050E0C0
:105160000C94D828262FF999FECF92BD81BDF89ACC
:10517000019700B4021639F01FBA20BD0FB6F8949B
:10518000FA9AF99A0FBE08950396272F0E94B32822
:105190000E94B228252F0E94B328242F0C94B328F4
:1051A0000196272F0E94B3280C94B228DC01CB0172
:1051B000FC01F999FECF06C0F2BDE1BDF89A319627
:1051C00000B40D9241505040B8F708952F923F928D
:1051D0004F925F926F927F928F929F92AF92BF9207
:1051E000CF92DF92EF92FF920F931F93CF93DF93B3
:1051F000CDB7DEB7CA1BDB0B0FB6F894DEBF0FBE10
:10520000CDBF09942A88398848885F846E847D845C
:105210008C849B84AA84B984C884DF80EE80FD805E
:105220000C811B81AA81B981CE0FD11D0FB6F894D4
:10523000DEBF0FBECDBFED010895F894FFCFD312AE
:10524000D3122B132B1300137D1300130013881399
:10525000141423142314E514E514EE14EE14F014BE
:10526000EE14EE14EE14E514E514F514EE14EE1439
:10527000F5145C2484246D2584246D25B724D8245A
:065280006D252F253B25E2
:105286000105013102000000012F02310204320241
:10529600012F023002000000043602FFFF808182E7
:1052A600838485868788898A8B8C8D8E8F90919250
:1052B6009394A0A1A2A3A4A5A6A7A8A9AAABACADA6
:1052C600AEAFB0B1B2B3B4C0C1C2C3C4C5C6C7C81D
:1052D600C9CACBCCCDCECFD0D1D2D3D400E202280E
:1052E60008641E140A321E131F421F171F161F754D
:1052F6001F010A00F4F5F6F73133946697C60000ED
:1053060000004C617965723A2044656661756C747B
:10531600004C617965723A205261697365004C618F
:105326007965723A204C6F776572004C61796572C7
:105336003A2041646A757374004C617965723A204B
:10534600556E6465662D256C640025647825642C8D
:10535600206B253264203A2025630020202020611E
:1053660062636465666768696A6B6C6D6E6F70719F
:1053760072737475767778797A3132333435363795
:1053860038393052454254202020202020203B2707
:08539600202C2E2F2020200006
:00000001FF
