:100000000C946F050C94B6050C94B6050C94471827
:100010000C94B6050C94B6050C94B6050C94B60574
:100020000C94B6050C94B6050C949A2B0C946E2C7B
:100030000C945F240C94B6050C94B6050C94B6058C
:100040000C94B6050C94B6050C94B6050C94B60544
:100050000C94B6050C94AA240C94B6050C94B60521
:100060000C94B6050C94B6050C94B6050C94B60524
:100070000C94B6050C94B6050C94B6050C94B60514
:100080000C94B6050C94B6050C94B6050C94B60504
:100090000C9432170C94B6050C94B6050C94B60566
:1000A0000C94B6050C94B6050C94B60522000321F9
:1000B000007D0022000321007F00DA02818FD9F148
:1000C000DB40A4A62EAF810000A1C800A0C000AEF6
:1000D000D580A81FD300408D142000000000000030
:1000E00000003E5B4F5B3E003E6B4F6B3E001C3E94
:1000F0007C3E1C00183C7E3C18001C577D571C00A1
:100100001C5E7F5E1C0000183C180000FFE7C3E780
:10011000FF00001824180000FFE7DBE7FF0030486D
:100120003A060E00262979292600407F050507009A
:10013000407F05253F005A3CE73C5A007F3E1C1C8F
:100140000800081C1C3E7F0014227F2214005F5F01
:10015000005F5F0006097F017F00006689956A00E5
:1001600060606060600094A2FFA2940008047E04B6
:10017000080010207E20100008082A1C0800081C17
:100180002A0808001E10101010000C1E0C1E0C0077
:1001900030383E383000060E3E0E060000000000EB
:1001A000000000005F000000000700070000147F4F
:1001B000147F1400242A7F2A12002313086462008B
:1001C000364956205000000807030000001C224159
:1001D00000000041221C00002A1C7F1C2A00080885
:1001E0003E08080000807030000008080808080079
:1001F0000000606000002010080402003E514945E4
:100200003E0000427F4000007249494946002141BA
:10021000494D33001814127F100027454545390019
:100220003C4A4949310041211109070036494949F1
:100230003600464949291E00000014000000004015
:100240003400000000081422410014141414140097
:100250000041221408000201590906003E415D597F
:100260004E007C1211127C007F49494936003E4104
:10027000414122007F4141413E007F4949494100BF
:100280007F09090901003E41415173007F080808B8
:100290007F0000417F4100002040413F01007F0876
:1002A000142241007F40404040007F021C027F003A
:1002B0007F0408107F003E4141413E007F0909094B
:1002C00006003E4151215E007F091929460026495A
:1002D0004949320003017F0103003F4040403F0095
:1002E0001F2040201F003F4038403F006314081487
:1002F00063000304780403006159494D4300007F03
:1003000041414100020408102000004141417F00AA
:10031000040201020400404040404000000307087E
:1003200000002054547840007F284444380038446A
:1003300044442800384444287F003854545418005A
:1003400000087E0902001824241C78007F08040499
:10035000780000447D4000002040403D00007F10B8
:100360002844000000417F4000007C0478047800AD
:100370007C08040478003844444438007C18242461
:100380001800182424187C007C0804040800485431
:100390005454240004043F4424003C4040207C008A
:1003A0001C2040201C003C4030403C0044281028C9
:1003B00044004C9090907C004464544C44000008ED
:1003C00036410000000077000000004136080000C0
:1003D0000201020402003C2623263C00000000002B
:1003E000000000000000000000000000C0E0F0F885
:1003F000F81800C0F0FCFEFFFFFFFFFFFFFF7E00CC
:10040000000000000000000080C0E0E0E0E0E0E06C
:10041000E0E0C0800000000080C0E0E0E0E0E0E05C
:10042000E0E0C080000000E0E0C0C0E0E0E0E0000C
:1004300000E0E0C0C0E0E0E0E0E0C08000000000DC
:1004400080C0E0E0E0E0E0E0E0E0C080000000002C
:1004500000000000000000000000E0F0F0F0E0EC20
:10046000EEF7F37020007C7C7C7E007E7E7E7F7FBA
:100470007F000080C0E07E5B4F5BFEC00000C000DC
:10048000DCD7DEDEDED7DC00C000000000000000AC
:10049000000000000000000000000000000000005C
:1004A0000000000000F8FCFEFFE000FFFFFFFFFF80
:1004B000FF80FFFFFFFFFFFFFFFFFF1F070100009F
:1004C00000000000000000FFFFFF810000000000AE
:1004D0000081C3C3C30000FFFFFF810000000000D4
:1004E0000081FFFFFF0000FFFFFF01000000000090
:1004F00000FFFFFF010000000001FFFFFF0000FF01
:10050000FFFF9D1C1C1C1C1C1C9DDFDFDF0000006E
:10051000000000000000000000000F1F3F7F7F7FF1
:100520007F7F3F1E0C001F1F1F3F003F3F3F7F7F0D
:100530007F00307B7F7830202030787F3B000300C5
:100540000F7F0F0F0F7F0F0003000000000000005F
:10055000000000000000000000000000000000009B
:100560000000000000030F1F3F3F3F3F1F1F3F3FA2
:100570007F7F7F3F3F1F3F7F7F7F7F7C7878381C66
:100580000F0000000000000001030707070707072E
:10059000070703010000000001030707070707071B
:1005A0000707030100000007070700000000000024
:1005B0000007070700000000000007070700000011
:1005C00001030707070707070707030100000000EB
:1005D000000000000000000000000000000000001B
:1005E000000000000000000000000000000000000B
:1005F00000000000000000000000000000000000FB
:1006000000000000000000000000000000000000EA
:100610000000000000000000000000002B0014009B
:100620001A00080015001700E0000400160007007B
:1006300009000A00E1001D001B000600190005006A
:10064000000000000000E300E2002C422D00130037
:1006500012000C0018001C00340033000F000E00C4
:100660000D000B002E00380037003600100011007E
:1006700000000000000029002A00284101001E009F
:100680001F0020002100220001002300240025007B
:10069000260027000100570056005500540067004F
:1006A00000000000000001000100035400000000F1
:1006B0000000000000000000000000004F00520099
:1006C00051005000000000000000000000004C003D
:1006D00000000000000001000100010001003A00DC
:1006E0003B003C003D003E0001003F004000410057
:1006F00042004300010044004500000000000000EB
:1007000000000000000001000100010000002202C2
:10071000210220021F021E02310231003502350083
:100720002402230230022F0230002F00270226026B
:1007300000000000000001002C010354005C0D5D6E
:100740000000000000000000C25CC55CC75CC95C22
:1007500000000000C35CC65CC85CCA5C000000000E
:100760000000000000000100010001000000000086
:100770000000000000000000000000000000000079
:100780000000000000000000000000000000000069
:1007900000000000000001000100010032190A0001
:1007A000047F3F1F643214643214783C1E1E140A06
:1007B000052223252628292A2C2D2F3032333536A1
:1007C000383A3B3D3E4042434547494A4C4E5051E2
:1007D000535557595A5C5E6062646668696B6D6F09
:1007E00071737577797B7D7F81838587898A8C8E0C
:1007F00090929496989A9C9E9FA1A3A5A7A8AAAC14
:10080000AEAFB1B3B4B6B8B9BBBCBEBFC1C2C3C54D
:10081000C6C7C9CACBCCCDCED0D1D2D2D3D4D5D6EF
:10082000D7D7D8D9D9DADADBDBDBDCDCDCDCDCDD22
:10083000DDDDDDDCDCDCDCDCDBDBDBDADAD9D9D806
:10084000D7D7D6D5D4D3D2D2D1D0CECDCCCBCAC99E
:10085000C7C6C5C3C2C1BFBEBCBBB9B8B6B4B3B1CD
:10086000AFAEACAAA8A7A5A3A19F9E9C9A98969468
:1008700092908E8C8A89878583817F7D7B7977753D
:1008800073716F6D6B6968666462605E5C5A59571C
:10089000555351504E4C4A4947454342403E3D3BDB
:1008A0003A3836353332302F2D2C2A292826252365
:1008B00022FFAA7F55400001010101010101010150
:1008C0000202020202020202020303030303030301
:1008D00003040404040404040505050505060606CE
:1008E0000606070707070708080808090909090A8B
:1008F0000A0A0B0B0B0C0C0C0D0D0D0E0E0E0F0F30
:100900000F101011111112121313141415151616BD
:100910001717181819191A1A1B1B1C1D1D1E1E1F2C
:100920002020212222232424252626272829292A7B
:100930002B2C2D2D2E2F30313232333435363738A3
:10094000393A3B3C3D3E3F4041424344454647489F
:10095000494A4C4D4E4F50515354555658595A5B75
:100960005D5E5F616264656668696B6C6D6F707215
:10097000737577787A7B7D7E8082838587888A8C81
:100980008E8F91939596989A9C9EA0A2A3A5A7A9B5
:10099000ABADAFB1B3B5B7BABCBEC0C2C4C6C9CBAC
:1009A000CDCFD1D4D6D8DBDDDFE2E4E7E9EBEEF062
:1009B000F3F5F8FAFDFF0403300000002E034300B6
:1009C0006F0072006E00650020004B00650079002A
:1009D00062006F0061007200640020002800630064
:1009E00072006B00620064002900000010036600C2
:1009F0006F006F007300740061006E00000004035C
:100A0000090409023B00020100A0320904000001B0
:100A100003010100092111010001224000070581A5
:100A20000308000A09040100010300000009211164
:100A3000010001224F000705820320000A12011065
:100A40000100000008EDFE60300100010203010515
:100A5000010902A10185020901A100050919012965
:100A60000515002501950575018102950175038124
:100A7000010501093009311581257F95027508812D
:100A80000609381581257F950175088106050C0A30
:100A900038021581257F950175088106C0C00501C2
:100AA0000906A101050719E029E7150025019508A8
:100AB000750181029501750881010507190029FF5B
:100AC000150026FF00950675088100050819012903
:100AD00005950575019102950175039101C01124D9
:100AE0001FBECFEFDAE0DEBFCDBF04B603FE27C0E6
:100AF0008091C5049091C604A091C704B091C80428
:100B00008730904BA740B04BD1F41092C50410929F
:100B1000C6041092C7041092C80414BE84B7877F1D
:100B200084BF0FB6F894A895809160008861809387
:100B30006000109260000FBEE0E0F8E3099512E05B
:100B4000A0E0B1E0E4E8F5E602C005900D92A8351A
:100B5000B107D9F724E0A8E5B2E001C01D92A53C99
:100B6000B207E1F70E94CB280C9488320C94000065
:100B7000CF93C82F88E70E94F016882311F0C0E0B9
:100B80000BC080E00E9423178111F9CF8C2F0E94A7
:100B90002317C1E08111F3CF0E9417178C2FCF913B
:100BA00008951F93CF93DF93C82FD92F162F180FB7
:100BB000FE0184910E94B805882319F021961C1328
:100BC000F7CFDF91CF911F9108958EEA0C94B8056D
:100BD0008FEA0C94B8050F931F93CF93DF93EC012A
:100BE0008C010C5A1F4FD801ED91FC911197608335
:100BF0008D919C91119701968D939C938C1B9D0BCD
:100C000084359105B9F4BE016B5E7F4F4FE350E030
:100C1000CE010E94DE2ECE01CF96F8019183808313
:100C200045E150E060E270E0DF91CF911F910F91BC
:100C30000C94F02EDF91CF911F910F9108951F9387
:100C4000CF93DF93EC01FC01EA5AFF4F81E08083F0
:100C50006A30B1F43297808191818C1B9D0B65E1E4
:100C600070E00E944E2E182F153120F0DF91CF91A9
:100C70001F91089560E2CE010E94EB051F5FF4CF43
:100C8000CE01DF91CF911F910C94EB050F931F9331
:100C9000CF93DF938C01EB016991611105C0DF9166
:100CA000CF911F910F910895C8010E941F06F4CFA4
:100CB000CF93DF93EC010E94460668E871E0CE0115
:100CC000DF91CF910C944606CF93DF93EC0144E57E
:100CD00050E060E270E00E94F02EFE01EC5AFF4FFF
:100CE000D183C083CA5ADF4F81E08883DF91CF91DF
:100CF00008957F928F929F92AF92BF92CF92DF9290
:100D0000EF92FF920F931F93CF93DF938C010E947A
:100D10008F2490935902809358020E94E80567E05F
:100D20008CEA90E00E94D105882399F188E70E941F
:100D3000F01681112EC080E40E942317811129C072
:100D40007801480184E5880E911C96E0792E5701C0
:100D5000D12CF501C1915F01C79DE0011124C4525E
:100D6000DF4F86E0C82EFE0184910E942317CA94AB
:100D70002196C110F8CFD394F5E1DF12EACF85E1D7
:100D8000E80EF11C8E149F0411F7F801EA5AFF4F88
:100D90001082DF91CF911F910F91FF90EF90DF9024
:100DA000CF90BF90AF909F908F907F900C9417172B
:100DB0008BED93E00C9479061F93CF93DF93C82FAC
:100DC0000E94EA166DE08FEC90E00E94D10581113F
:100DD00006C0C0E08C2FDF91CF911F91089563E092
:100DE0008CEC90E0C11102C089EC90E00E94D1052A
:100DF000882379F36FE08AEB90E00E94D105C82F39
:100E0000882339F38BED93E00E94640667E083EB5F
:100E100090E00E94D105882359F088E70E94F016DF
:100E2000811106C080E40E94231714E0882361F03A
:100E30000E9417170E94D806CDCF80E00E9423178A
:100E4000D150D9F7115011F0D0E8F7CF10923104FA
:100E5000EFCF0E94940A80913104811104C08091E7
:100E60000401882321F00E94D80610920401809189
:100E70005802909159020E949B2481369A4E10F09C
:100E80000C94E505089581E0809304010895CF93C3
:100E9000DF93A0E9B1E044E951E0C1E0D0E08D91F9
:100EA000E82FE295EF70F0E061A18F709E0101C024
:100EB000220F8A95EAF7922F9095962391A382A10B
:100EC000822B82A34A175B0751F7DF91CF910895D8
:100ED0000C94590A209A559A289A5D9A08955D981B
:100EE00008955D9A089528980895289A08950E9473
:100EF0001C090E944707AAE8B1E061E070E08D910B
:100F0000E82FE295EF70F0E041A18F709B0101C0E6
:100F1000220F8A95EAF7922F9095942391A382A1AC
:100F2000822B82A381E0A039B80749F70E946A07A3
:100F3000E2E6F2E0AAE5B2E011921D9282E0EA3622
:100F4000F807D1F70E94FB0880936A020C94780B93
:100F50009F92AF92BF92CF92DF92EF92FF920F9348
:100F60001F93CF93DF9380910601C4E0D0E08823E4
:100F700011F0D0E0C0E080E9C82E81E0D82EAE01AB
:100F8000465A5D4F7A018A01AA24A394B12C25E028
:100F9000922EF60181916F01E82FE295EF70F0E05B
:100FA00021A18F70A50102C0440F551F8A95E2F759
:100FB000CA01922F982B91A392A18095892382A395
:100FC00050EA5A95F1F7EAE8F1E020E050E040E01D
:100FD0003191A32FA295AF70B0E090968C9190E0E4
:100FE0003F7002C0959587953A95E2F780FD39C02C
:100FF000C501042E01C0880F0A94EAF7282B4F5F21
:101000005F4F4630510521F7F8018081821719F0B2
:101010002083909205010E9447070F5F1F4FF4E95C
:10102000CF16F1E0DF0609F0B4CF809105018823E7
:1010300059F08150809305018823A9F08FE99FE042
:101040000197F1F700C0000081E0DF91CF911F917F
:101050000F91FF90EF90DF90CF90BF90AF909F9057
:10106000089580E0CBCFCE59DD4FF70191917F01FC
:1010700099938F5F8430C9F7E7CF0F931F93CF9376
:10108000DF932091060110E000E0222311F004E03C
:1010900010E00E943709EC01009739F0029711F433
:1010A0000E947307C1E0D0E011C00E947507F801EB
:1010B000EE59FD4F8091760290917702A0917802CF
:1010C000B091790280839183A283B383CE01DF91B3
:1010D000CF911F910F9108950E94A807809106015A
:1010E000E4E0F0E0882311F0F0E0E0E0EE59FD4F9D
:1010F00090E080E020E0DC01AA58BD4F4C91319196
:10110000431321E03C93019684309105A1F780912F
:101110006F02820F80936F020895CF93DF938091C7
:101120006A02882309F445C00E94A807809106013D
:10113000C4E0D0E0882311F0D0E0C0E0CE59DD4F0C
:1011400044E050E0BE0182E792E00E94D12E488147
:1011500059816A817B81409372025093730260933C
:101160007402709375020E943D08892BE9F00E9479
:101170006F0780916B028F5F80936B02863070F0F7
:1011800080910601F0E0E0E0882311F0E4E0F0E077
:10119000EE59FD4F10821182128213820E94800B41
:1011A00081E0DF91CF9108950E94710710926B0248
:1011B000F5CF0E946C0880910601811112C090E069
:1011C00080E08E599D4F4091720250917302609160
:1011D000740270917502FC014083518362837383B2
:1011E000DDCF84E090E0EDCFE82FF0E0EE59FD4F49
:1011F00080810895089580916C02811111C08091C1
:10120000D80080618093D8008AE18A95F1F700C008
:101210009091D900892F817090FF82E080936C02B9
:1012200081E090916C02913009F080E008950E9475
:10123000FB0891E0892708950E9417098093060111
:101240000E94FB08882321F00E942B0978940895BE
:101250000E943109FBCF63E070E087E091E00C94DD
:10126000F41763E070E087E091E00C94FD170F93B2
:101270001F93CF93DF938C019091200180911F01E8
:10128000D0E0C0E0981759F082E090E00E94D618B4
:10129000EC01892B21F480911F0180932001809122
:1012A0006D0290916E02082B192B90E080E0012BCB
:1012B00011F081E090E00E94D618892B71F48091A2
:1012C0006F0280931F0110926E0210926D02CE0188
:1012D000DF91CF911F910F91089581E090E090935D
:1012E0006E0280936D02F3CF8091AB039091AC03BB
:1012F000A091AD03B091AE0384309105A105B10575
:10130000E1F128F50097A105B10571F164EB71E0F9
:1013100082309105A105B10549F1BF93AF939F9329
:101320008F938FEC91E09F938F931F9288E18F931F
:1013300082E394E09F938F930E94FE2E8DB79EB719
:101340000A960FB6F8949EBF0FBE8DBF13C08830AB
:101350009105A105B10529F08E309105A105B105D2
:10136000E1F661EC71E002C068E971E082E394E0CB
:101370000E94F72E82E394E0089567EA71E0F6CFC9
:1013800081E291E00895CF93C0E28C33910520F47F
:10139000FC01EF50FE4FC0811F92CF939F938F931C
:1013A000FB0180811F928F9381811F928F9380EE2A
:1013B00091E09F938F931F9288E18F9381E992E050
:1013C0009F938F930E94FE2E8DB79EB70E960FB6F9
:1013D000F8949EBF0FBE8DBF80917A0290917B02E0
:1013E000449761F410927B0210927A02ECE7F2E0EB
:1013F00080E2819392E0E039F907D9F780917A028F
:1014000090917B02FC01E458FD4FC08301969093BC
:101410007B0280937A02CF91089581E992E008954A
:101420000F931F93CF93DF93EC018B010E9443072F
:10143000882351F0B801CE010E94B80A8170DF9173
:10144000CF911F910F91089580E0F8CF0C944B0A33
:10145000CF93DF93EC010E942223BE0190E080E055
:10146000DF91CF910C946320CF93DF93D62FC42FBD
:101470000E94C520882351F08D2F0E94C52088230B
:1014800029F08C2FDF91CF910C94E5208C2FDF91E8
:10149000CF910C94062180914C04869590E0909316
:1014A0004B0480934A040E94FB0891E089270C9426
:1014B000DC060C942907CF93DF93EC0180916A023C
:1014C000882371F00E947409BC01CE010E94580665
:1014D0000E940D0ABC01CE01DF91CF910C945806F9
:1014E0000E94C009BC01CE01DF91CF910C94460649
:1014F0000F931F93CF93DF93EC018B0144E550E0F2
:101500000E94D12E892B59F084E5F801DE0101906B
:101510000D928A95E1F7CA5ADF4F81E08883DF9107
:10152000CF911F910F910895CF93DF93CDB7DEB781
:10153000C755D1090FB6F894DEBF0FBECDBFCE019F
:1015400001960E946406CE0101960E945B0ABE01CC
:101550006F5F7F4F8BED93E00E94780AC95ADF4F8F
:101560000FB6F894DEBF0FBECDBFDF91CF910895C7
:101570000F931F93CF93DF938C01EB018A81882314
:1015800019F0C8010E94C30909308DE5180761F1FF
:1015900050F4033C8CE5180709F44CC008301D4595
:1015A000D1F0C1E037C00B308DE51807C9F140F12B
:1015B0000D301D45B1F7CA81CC2399F30E947B0EF3
:1015C0000E94401380914C04869590E090934B04C8
:1015D00080934A041FC0CA81CC23E1F081E090E0EF
:1015E0000E94280AC0E016C0CA8181E0CC2359F0CD
:1015F0000E94E52043E062E081E00E94340AF2CFDD
:10160000CA8182E0F3CF0E94062143E062E081E0DC
:101610000E94340A8C2FDF91CF911F910F91089572
:10162000CA8183E0CC2319F00E94E520DBCF0E9421
:101630000621F0CFCA81CC2369F380914A040E942D
:101640003D130E942D1380914C04869590E0909359
:101650004B0480934A04C6CF81E0089508950C940A
:101660002E0B1F93CF93DF9300D000D00F92CDB7F6
:10167000DEB749835A836B833091540389819A8101
:1016800031111DC06623B9F02223A9F00E94D82190
:10169000182F682F89819A810E94812169817A811E
:1016A000812F0F900F900F900F900F90DF91CF919F
:1016B0001F910C94E30B0E94AF21182FEFCF0E94D3
:1016C000D82169817A81EDCFFC01262F408151819B
:1016D0006281738184810C94310BCF93DF93EC0191
:1016E00060E00E94640BBE01DF91CF910C942F0B40
:1016F0000E940F23811102C00E94B1230C94260A7C
:101700000C94680708950C94820B81E008950C9462
:10171000850BCF93C82F0E94830B8C2FCF910C94F5
:10172000870B08950E94551D0E94910B2FEF84E3B3
:101730009CE0215080409040E1F700C000000C94F4
:10174000CE240F931F93CF93DF93EC0161E00E94AF
:10175000640B8C01BE010E94100A882359F1BE015E
:10176000C8010E945315882329F1BE01C8010E94B7
:1017700094158823F9F0BE01C8010E94B71688238A
:10178000C9F0BE01C8010E944A14882399F08A81D9
:10179000882339F001158CE5180751F00E3D1C45E2
:1017A00079F0CE01DF91CF911F910F910C942C0B0A
:1017B0000E94920B80E0DF91CF911F910F910895CD
:1017C0000E94B123F7CF972F70E026E0929F600D23
:1017D000711D1124FB0190E3899FE00DF11D11247F
:1017E000EE0FFF1FE45EF94F859194910895CF931A
:1017F000DF930E94E30B0E94CF0CEC01811522E5E0
:10180000920778F5811531E5930708F098C08F3F6E
:10181000910509F0B8F4803F910508F06FC0853A52
:10182000910540F48430910548F4019739F0D0E0F7
:10183000C0E004C0805E91090897C8F7CE01DF912F
:10184000CF910895811540E5940708F05CC0C1155B
:1018500080E4D80708F054C0C11590E2D90770F3AE
:10186000E6CF811526E5920718F5811535E5930732
:1018700008F07DC0811544E5940708F073C0982FE7
:10188000969596959E0123703327C115D34508F48C
:101890005BC0C1E0D0E002C0CC0FDD1F2A95E2F7AB
:1018A00030E2939FC0011124C82BD92BDA68C6CF30
:1018B000C1159AE5D90778F4C11529E5D20708F0D2
:1018C00060C0C11538E5D30708F4B1CFDC2FCC27B1
:1018D000C06FD06AB3CFCE0190568115904208F008
:1018E000A6CF8D2F8F710E94660D90E0982F8827CC
:1018F00088279F719C012C2BE90141C0D0659ECFA8
:10190000DF70D06A9BCFE4E096958795EA95E1F782
:1019100083702C2F26952695237090E2299F9001A5
:101920001124382B8C2F8370C1E0D0E002C0CC0F83
:10193000DD1F8A95E2F7C22BD32BDC687FCFD82F2F
:10194000CC27C16FD06A7ACFC1E0D0E002C0CC0F03
:10195000DD1F2A95E2F720E2929FC0011124C82BD7
:10196000D92BEBCFD82FCC27C46FD06A67CF0E947A
:10197000660DC82FD0E0DC2FCC27CC27DF71D062DA
:101980005DCF8C2F8F700E94660D34E0D695C79581
:101990003A95E1F7CF709C2FEC01D0694FCF823898
:1019A0009105B1F1B0F48133910509F475C048F4A3
:1019B0008932910509F469C08A32910509F473C02E
:1019C00008958533910509F459C08933910501F1D2
:1019D0000895833E9105A9F138F4803E9105F9F010
:1019E000823E910549F10895863E9105A9F1873E11
:1019F0009105C9F1843E910519F52091B70421FFA5
:101A00001FC08091B60484FD14C087EE90E0089555
:101A10002091B6042370A1F080EE90E0089520910B
:101A2000B60420FD47C03091B70430FF09C024FF41
:101A300044C090E080E004C02091B60422FDF7CFBE
:101A400008952091B60422FD3BC03091B70430FDCB
:101A5000E3CF24FFF5CFEDCF2091B60423FFF0CFE5
:101A600024FDE7CFD2CF2091B60423FD2CC03091C6
:101A7000B70431FFEECF84EE90E008952091B604D4
:101A800025FFDECF89E290E008952091B60425FF7E
:101A9000D7CF85E390E008952091B60426FFD0CFFC
:101AA0008AE290E008952091B60426FFC9CF81E331
:101AB00090E0089589E390E0089583EE90E0089522
:101AC00082EE90E0089586EE90E008959091B6043D
:101AD00092FF06C0282F28712830F9F4877F846090
:101AE00093FF06C0282F28712831F1F4877E846186
:101AF0002091B70420FF06C0382F38713830D9F450
:101B0000877F816021FF06C0282F28712831D1F4FA
:101B1000877E816194FD877E0895282F247124306B
:101B2000F9F68B7F8860DCCF282F2471243101F7F0
:101B30008B7E8861DDCF382F3171313019F78E7F80
:101B40008860E0CF282F2171213121F78E7E8861B6
:101B5000E1CFAF92BF92CF92DF92FF920F931F938C
:101B6000CF93DF93362F472FE82FF0E0EA54F74F5B
:101B700071110DC06491762F862FDF91CF911F9147
:101B80000F91FF90DF90CF90BF90AF900895C72F37
:101B9000D0E02491F22E022F10E056E0659FC001A4
:101BA0001124EFEFF0E0BF010E943A2E832F90E066
:101BB000880F991F35E5369FD001379FB00D11244E
:101BC0008A1B9B0B982F990F980F6F01CC1ADD0A77
:101BD000C09ED001C19EB00DD09EB00D11248B2FA0
:101BE000949FA0011124452F55276F01C41AD50ACF
:101BF000C09EA001C19E500DD09E500D11245F01CA
:101C0000A91AB108AC9E6001AD9ED00CBC9ED00C50
:101C10001124CD2CDD24EC19FD09E09FE001E19FAA
:101C2000D00DF09FD00D1124ED2F62307105A1F081
:101C300048F46115710569F06130710589F0EB2F89
:101C4000852F07C06430710571F088F0663071052A
:101C5000B1F76E2F722F91CFE22F2B2F8D2FF9CF4F
:101C6000E22F252FF6CFEB2F822F2D2FF2CF2B2F08
:101C70008F2DE52FEECF0895CF93DF93762FE901D7
:101C8000682F842F0E94A90D798368838A83DF914E
:101C9000CF910895493708F048E70C943C0E8091A5
:101CA0004C04982F9E7F61F48170826080934C0475
:101CB00080914F04893718F088E780934F04089586
:101CC0008635B0F381708465F1CF88E090E00C94A4
:101CD000AE31CF92DF92EF92FF926B017C010E94B6
:101CE0004F0EB701A60188E090E0FF90EF90DF90E3
:101CF000CF900C94CC31ECE4F4E083E0808311824B
:101D00008FEF828388E7838314826081718182816F
:101D100093810C94690E80914C0480FF02C08695DB
:101D2000089580E0089580915004833018F48F5F07
:101D30008093500460914C0470914D0480914E0446
:101D400090914F040C94690E80915004882319F0EF
:101D500081508093500460914C0470914D048091A7
:101D60004E0490914F040C94690E70E00C94BA14D8
:101D70006091640180914C0480FF0AC080916301EE
:101D800023E0829FC00111248F5A9B4F0C94B50E03
:101D9000809165019091660123E0829FF0011124FA
:101DA000EF5AFB4F891750F71182108212828F5F12
:101DB0003396F8CF90914C0490FF14C09091650138
:101DC0002091660133E0939FF0011124EF5AFB4FFD
:101DD000921710F00C94B80E8183608342839F5F4A
:101DE0003396F6CF0895CF93DF9300D00F92CDB7FF
:101DF000DEB790914C0490FF0AC09E012F5F3F4FC9
:101E00000E944A0E4B8169818A810E94DA0E0F90EE
:101E10000F900F90DF91CF910895CF93DF93EC0156
:101E2000EC81F0E0EF54F84F4491ECE4F4E062818F
:101E300081810E94F30E8C818F5F8C83DF91CF9123
:101E40000895CF93DF93EC01ECE4F4E043816281E9
:101E50008C810E94F30E8C818F5F8C83DF91CF91F8
:101E600008950F931F93CF93DF9300D00F92CDB7B8
:101E7000DEB78C018091A90281110AC09E012F5FFB
:101E80003F4F48E76FEF0E944A0E8A818093A90274
:101E9000F8016481613069F08091A90240E0662315
:101EA00061F040E0623011F44091A90280E060E00E
:101EB00004C06091A90240E080E00E94DA0EF801BF
:101EC000848190E0019663E070E00E944E2E84834E
:101ED0000F900F900F90DF91CF911F910F91089568
:101EE000AF92BF92CF92DF92EF92FF920F931F9328
:101EF000CF93DF9300D00F92CDB7DEB7182FF62E19
:101F0000042FE22E90914C0490FF29C0E92FE69512
:101F1000AE2FB0E0A35DBD4F8C9180933A039E7FBE
:101F2000923059F59E012F5F3F4F812F0E944A0E3C
:101F30004B8169818A810E94DA0E10934D04F092E0
:101F40004E0400934F04EE2051F060914C047091C8
:101F50004D0480914E0490914F040E94690E0F90A1
:101F60000F900F90DF91CF911F910F91FF90EF9005
:101F7000DF90CF90BF90AF900895823019F4009118
:101F80004F04DBCF863019F410914D04D6CF893041
:101F9000D9F3893191F6E9518E2F8170D82EE695CB
:101FA000F0E0EF54F74FA590B490C12CBB246091A2
:101FB0006701C61618F00E94B80EBFCF2C2D30E076
:101FC000A29EC001A39E900DB29E900D112470E0C0
:101FD0000E943A2E812FD11013C0860F40916501C7
:101FE000420F532F511D9A01220F331F240F351F0B
:101FF0002F5A3B4F402F6F2D0E944A0EC394D7CFCC
:10200000861BECCFECE4F4E09181282F43816281C0
:102010008AE0890F0C94700F81E00C940210ECE4BC
:10202000F4E09181282F4381628186EF890F0C941F
:10203000700F81E00C940F10ECE4F4E0628121E178
:10204000620F08F46FEF282F438181810C94700F89
:1020500081E00C941C10ECE4F4E0628121E1621B4D
:1020600008F460E0282F438181810C94700F81E097
:102070000C942B10ECE4F4E0438121E1420F08F4CE
:102080004FEF282F628181810C94700F81E00C94B6
:102090003A10ECE4F4E0438121E1421B08F440E013
:1020A000282F628181810C94700F81E00C9449107B
:1020B00020E00C94700FEF92FF921F93CF93DF9369
:1020C000EC0110E0EE24EA94F12C60916701161700
:1020D00070F00E94B80E9A818C8190FF27C08F5FAC
:1020E0008C83DF91CF911F91FF90EF900895209105
:1020F0006501422F410F5527551FCA019A01220F32
:10210000331F280F391F2F5A3B4F70E0C7010E9421
:102110004E2E962F8C8140914F0460914E04199F52
:10212000800D11240E944A0E1F5FCFCF8150D8CF5F
:10213000AF92BF92CF92DF92EF92FF920F931F93D5
:10214000CF93DF93FC0182810FEF80FF01E010E06D
:102150004BE1A42E809167011817C8F00E94B80EB9
:102160008091AB02013009F055C0811102C080910D
:10217000670181508093AB02DF91CF911F910F9146
:10218000FF90EF90DF90CF90BF90AF900895C091F7
:102190006501C12ED12CCC0DDD2DD11DCE01880FB6
:1021A000991FC80FD91FCF5ADB4F198218821A8284
:1021B00034E0E32EF12CB12C8091AB028B0D8C31ED
:1021C0001CF16A2D0E942C2E892F082E000C990BD1
:1021D000C816D90691F480914F048E9DA0018F9D61
:1021E000500D112455954795559547959E01609141
:1021F0004E0480914D040E944A0EB00EF1E0EF1A99
:10220000F108D1F61F5FA6CF87FFDFCF909167015E
:10221000890FDBCF90E001966091670170E00E942A
:102220004E2EA8CF0F931F93CF93DF93809165011C
:102230009091660123E0829FF0011124EF5AFB4F39
:10224000891740F1C0E0D3E060916701C61740F103
:102250000E94B80E209161018091AA02820F8093A2
:10226000AA0290916201920F90936201191654F4A0
:10227000082E000C990B409167014150550B8417B3
:1022800095071CF0219520936101DF91CF911F915B
:102290000F9108951182108212828F5F3396D0CFF2
:1022A0000C2F10E070E0C8010E944E2E20916501B5
:1022B000820F482F50E02091AA02022E000C330B0F
:1022C00002171307BCF020916201022E000C330BA1
:1022D000201731077CF08D9F900111242F5A3B4F1E
:1022E00040914F0460914E0480914D040E944A0E2B
:1022F000CF5FAACFFA01EE0FFF1FE40FF51FEF5AD1
:10230000FB4F118210821282F3CF0F931F93CF9352
:10231000DF938C01FC01848195810196817099275E
:1023200095838483C0E0D5E580916701C81730F0BC
:10233000DF91CF911F910F910C94B80E2091650100
:10234000422F4C0F5527551FCA019A01220F331FE8
:10235000280F391F2F5A3B4F8C2F8695F801448147
:102360005581840F952F911D817040914F0460918C
:102370004E048D9F802D11240E944A0ECF5FD4CF32
:102380000F931F93CF93DF93EC0110E000E0909147
:1023900067019017110609F06CF40E94B80E8C8149
:1023A00090E00196817099278C83DF91CF911F91E6
:1023B0000F91089520916501A801420F511D9A01C6
:1023C000220F331F240F351F2F5A3B4F4C81609132
:1023D0004E0480914D0496959017110651F04CF0E3
:1023E000442349F040914F040E944A0E0F5F1F4F53
:1023F000CECF4423B9F340E0F7CF8F929F92AF92B4
:10240000BF92CF92DF92EF92FF920F931F93CF93E1
:10241000DF93FC01B280948081E0848300E015E0CA
:102420005BE4A52E88248394EE24EA94F12C7BE4CB
:10243000C72ED12C80916701081770F0DF91CF91E2
:102440001F910F91FF90EF90DF90CF90BF90AF90D2
:102450009F908F900C94B80EC02FD0E01C9FF0017D
:102460001D9FF00D1124E455FD4F91101CC01382E7
:10247000128220916501CE01820F911D9C01220FD5
:10248000331F280F391F2F5A3B4F1C9FF0011D9FF0
:10249000F00D1124E455FD4F4281618180810E943D
:1024A0004A0E0F5FC7CF2381222379F12150238366
:1024B00034818A2D821B311101C0822F1C9FF001B3
:1024C0001D9FF00D1124E455FD4F90914F04899FFD
:1024D000C0011124B6010E943A2E6283211104C06A
:1024E000332311F01482A38222E02B1510F21C9FDB
:1024F000F0011D9FF00D1124E455FD4F80914D0416
:10250000808380914E048183B4CF0E94B42E8230A8
:1025100091400CF0AECF82E08B1530F50E94B42EC6
:10252000B7010E944E2E1C9FF0011D9FF00D11243B
:10253000E455FD4F808322E02B15C8F40E94B42E91
:1025400020914E042695622F70E00E944E2E280F97
:102550001C9FF0011D9FF00D1124E455FD4F2183B8
:102560001282A382848285CF80914D04DCCF20919A
:102570004E04EECFECE4F4E080818E7F80836081B6
:102580007181828193810E94690E10923B032FEF2B
:1025900080E792E0215080409040E1F700C00000C9
:1025A0000C94B80E60914C04669570E04BE050E0DE
:1025B00088E691E00E94C42E892B19F481E0809373
:1025C0003B030E948F249093340380933303089538
:1025D00090914C0490FF35C09170811128C0926099
:1025E00090934C04662351F060914C0470914D041B
:1025F00080914E0490914F040E94690E60914C04AA
:10260000669570E04BE050E088E691E00E94C42EB1
:10261000892BA1F010923B0381E080933603409117
:102620004F0460914E0480914D040C9458108B32ED
:1026300010F09465D5CF880F982BD2CF0E94D2127C
:10264000EBCF0895682F90914C04969581E0890F07
:102650008B3208F081E00C94E81281E00C94221394
:10266000682F90914C0496958FEF890F09F48AE2B8
:102670000C94E81281E00C94301361E00C94E812A1
:10268000ECE4F4E080818160808386950C943D13B6
:1026900080914C0480FD0C94BA120C94401360E0BD
:1026A0000C94E8128091390381112EC00E940F23EF
:1026B000811104C00E94B1230E947B0E0E94650E0E
:1026C00060934C0470934D0480934E0490934F0498
:1026D0006E7F61F40E947B0E0E94650E60934C0435
:1026E00070934D0480934E0490934F040E944F0EBC
:1026F00010923B0380914C0480FF03C086950E949A
:102700004F1381E08093390308950F931F93CF9364
:10271000DF9380913B03882309F49DC080913A03A5
:10272000E0914C04E695E81BE09335038230C9F54F
:10273000F0E0E355F84FE491CE2FD0E00DE01FE03C
:1027400080913603882389F0109236030E948F24EB
:102750009E0120953095820F931F909334038093B0
:102760003303109238031092370380913303909112
:1027700034030E949B248C179D0708F46CC0E091E1
:102780003303F0913403CE0FDF1FD0933403C09393
:10279000330383E393E0F801DF91CF911F910F9111
:1027A0000994863049F4F0E0E655F84FE491CE2FD5
:1027B000D0E001E21FE0C4CF893051F4E695F0E0AB
:1027C000E955F84FE491CE2FD0E00BE510E1B8CFFA
:1027D0008F3051F4E695F0E0EC55F84FE491CE2FB0
:1027E000D0E008E910E1ACCF853149F4F0E0EF55D5
:1027F000F84FE491CE2FD0E002E111E1A1CFC8EE75
:10280000D3E005E811E1883109F49ACF833239F435
:10281000EFE9F7E0C591D49101E31FE091CFC4EF58
:10282000D1E000EC11E1843209F48ACFC0EDD7E0A9
:102830000BE31EE0853209F083CF8E2F63E00E9408
:10284000202EE92FF0E0E456F84FE491CE2FD0E0AF
:102850000DEF11E175CFDF91CF911F910F91089589
:10286000FA01811101C0FB010994CF93DF93C82FB6
:10287000D62F0E948B0E8C1740F00E948B0E8D1766
:1028800020F4DF91CF910C942D138C2FDF91CF91F9
:102890000C943D130F931F93CF938C01FB01C281C6
:1028A000CC2309F465C00E946D228272F801E25CBB
:1028B000FC45E431F10538F4E657FD4C0C94622EEA
:1028C0000E944813C0E08C2FCF911F910F91089563
:1028D0004AE353E16DE273E10E943014F3CF4DE21D
:1028E00053E16AE373E1F8CF49E150E16CE070E154
:1028F000F3CF4CE050E169E170E1EECF47E350E106
:1029000068E270E1E9CF48E250E167E370E1E4CFCB
:1029100045E550E166E470E1DFCF46E450E165E56E
:1029200070E1DACF44EA5EE063E97EE0D5CF43E9C7
:102930005EE064EA7EE0D0CF81E00E943D13C2CF2A
:1029400065E082E00E943514BDCF68E086E0FACFF2
:102950006EE089E0F7CF64E18FE0F4CF67E185E1D5
:10296000F1CF88E1EACF62E289E1ECCF83E2E5CF03
:10297000C1E0A9CF539A4BB1477F5BB15860EFB725
:10298000F8949B01220F331F260F371F280F391F82
:102990002817390741F4EFBF8FE594E00197F1F76D
:1029A00000C000000895DC016D91CD0178E05BB9B5
:1029B000000000C067FF4BB9660F000000C000C0F8
:1029C00000C04BB900C07A9591F7E2CF0F931F93E7
:1029D000CF93DF93C62FD42F022FFC01828188234F
:1029E000C9F060933E030E948F2490933D0380932F
:1029F0003C0380E28C0F883008F050C0C77081E043
:102A000001C0880FCA95EAF7DF91CF911F910F910E
:102A10000C940A1B10913E03161335C080913C03A1
:102A200090913D030E949B24883C910560F5C0E293
:102A3000CD0F1D17B9F080E2810F883040F4177078
:102A400081E001C0880F1A95EAF70E94111BC83077
:102A500048F481E09D2F977001C0880F9A95EAF79E
:102A60000E940A1B802F0E94F71AC830B8F4D77052
:102A700081E001C0880FDA95EAF7DF91CF911F91CD
:102A80000F910C94111B80E28C0F883038F4C770C2
:102A900081E001C0880FCA95EAF7EFCFDF91CF91AF
:102AA0001F910F9108959C01CB01233F4CE5340702
:102AB00031F190F4283DFCE53F07E9F0293D4CE574
:102AC000340769F1273D3C4579F426E241EE61EE99
:102AD0000E94E61480E00895253FFCE53F07B9F029
:102AE00090F0263F3C45B9F0FC0182818823D1F06B
:102AF00010923E03089527E245EE65EEE9CF26E207
:102B000041EE60EEE5CF27E245EE64EEE1CF26E24E
:102B100041EE62EEDDCF27E245EE66EED9CF28E248
:102B200041E0EBCF81E00895CF93DF93EC01FB010F
:102B30008281882309F419C1C230FCE5DF07C0F1A6
:102B4000C6319CE5D90730F09E012A5F3C4529300B
:102B5000310570F50E9427239093B7048093B60443
:102B6000C031ECE5DE0709F4CFC008F05BC0C83027
:102B70008CE5D80709F4B6C088F5C430ECE5DE076B
:102B800009F4A8C0C0F4C2308CE5D80709F49CC091
:102B90008091B6048260C330DC4509F498C080910E
:102BA000B6049091B7040E9435230E94551D80E021
:102BB000DF91CF9108958091B6048061C630ECE535
:102BC000DE0709F484C08091B6048860C730DC4514
:102BD00008F47DC08091B604806279C0CC308CE569
:102BE000D80709F489C070F48091B6048C60CA30AB
:102BF000ECE5DE0709F46BC008F478C08091B604F8
:102C00008E7F65C0CE308CE5D80709F479C08091FD
:102C1000B6048B7FCF30DC4508F459C08091B604F0
:102C20008F7E55C0CB3FECE5DE0709F457C030F589
:102C3000C3318CE5D80709F46FC078F4C131ECE5F5
:102C4000DE0709F465C0C231DC4509F0A8CF0E9457
:102C5000551D8091B6048F773AC0C5318CE5D807F1
:102C600009F462C008F476C08091B7048160CA3F5D
:102C7000DC4509F094CF8093B70491CFCF3FFCE5BA
:102C8000DF0709F44DC088F48091B7048D7FCD3FF4
:102C90009CE5D90781F38091B7048E7FCE3FDC4558
:102CA00050F38091B7048360E6CFC130FDE5DF07C4
:102CB00009F459C008F444C080E0C230DD4509F091
:102CC0006ECF0E94B3236BCF8091B6048160809356
:102CD000B60465CF8091B6048460F9CF8091B704C3
:102CE0008260C9CF8091B6048064F1CF0E94551DE7
:102CF0008091B6048068EBCF8091B6048D7FE7CFDA
:102D00008091B604877FE3CF8091B6048F7DDFCFBB
:102D10008091B6048F7BDBCF8091B604837FD7CFC1
:102D20008091B7048C7FA7CF8091B60482FB99274E
:102D300090F921E0922790FB82F990FB83F9C7CFAD
:102D40008091B704982F909591708E7F892B90FB7E
:102D500081F991CF0E94551D9091B604892F97FB60
:102D600087F98058B4CF81E0ACCF81E021CFCF93F9
:102D7000DF93EB0186319C4511F50E946D229A810B
:102D8000992399F08A7A91E009F490E090933F03B7
:102D9000811109C089E20E9448220E94AC2280E091
:102DA000DF91CF91089585E3F6CF80913F038111A4
:102DB00004C089E20E944F22F0CF85E3FBCF81E07F
:102DC000EFCF83E390E02091BC0027FD02C0019784
:102DD000D1F708951092B9008CE08093B80008955F
:102DE000CF93C82F84EA8093BC000E94E1168091A3
:102DF000B900887F883041F08091B900887F8031A8
:102E000019F081E0CF910895C093BB0084E88093CE
:102E1000BC000E94E1168091B900887F883129F0BA
:102E20008091B900887F803461F780E0EBCF84E93E
:102E30008093BC0083E390E02091BC0024FD02C09D
:102E40000197D1F708958093BB0084E88093BC007C
:102E50000E94E1169091B900987F81E0983209F4C0
:102E600080E008951F921FB61F9211248F939F93A5
:102E7000EF93FF938091B900887F8038C1F038F4D8
:102E8000882309F44BC0803679F081E022C0883A6B
:102E900011F0883BD1F7E0914103F0E0EE55FB4F94
:102EA00080818093BB0031C010924003EECF8091AF
:102EB0004003811122C08091BB0080934103809127
:102EC00041038031C0F01092410380E091E0909383
:102ED00040039091BC008295880F880F807C892BDD
:102EE00085688093BC00FF91EF919F918F911F9017
:102EF0001FBE1F90189581E0E9CFE0914103F0E0FB
:102F00008091BB00EE55FB4F80838091410390E0A0
:102F100001968F70992780934103B7CF1092BC0020
:102F2000B4CF8EE14A9B02C08150E1F74A9BFECFAD
:102F300008955A9880E28A95F1F75A9A0895FC010B
:102F40003BE03A95F1F720E090E080E031E040E1AD
:102F50004A95F1F7880F4A9B02C08160232742E01F
:102F60004A95F1F7000040E14A95F1F79F5F691338
:102F7000EECF90E19A95F1F799B132E03A95F1F7F9
:102F8000000040E14A95F1F792FB992790F99227CA
:102F90002081920F90830895EF92FF920F931F93D9
:102FA000CF93DF930F92CDB7DEB719828C017C01EE
:102FB000E60EF11C0E151F0561F481E09981911157
:102FC00080E00F90DF91CF911F910F91FF90EF90D4
:102FD00008950E94911768E0CE0101960E949F1704
:102FE000F80181938F01E6CF9093440380934303CC
:102FF00060934203529A5A9A08959093440380939F
:1030000043036093420352985A9AEA9AE9E6F0E041
:1030100080818F7C808308956150770B91E001C09F
:10302000990F6A95EAF720E031E0911108C0222358
:1030300091F05A9A80E28A95F1F75A980895492FAB
:10304000482339F05A9A232740E24A95F1F796959A
:10305000ECCF5A98F9CF5A98EDCFFF920F931F9368
:10306000CF93DF93EC018C01060F111DC017D10720
:1030700031F4DF91CF911F910F91FF900895F99056
:103080000E94991768E08F2D0E940C18EFCF1F92B5
:103090000F920FB60F9211240F931F932F933F930C
:1030A0004F935F936F937F938F939F93AF93BF9350
:1030B000EF93FF93CF93DF930F92CDB7DEB71982D3
:1030C0000E94911767E0CE0101960E949F17082F7A
:1030D000069506950695982F92959570202F257048
:1030E000920F292F2370969596958770920F8913CA
:1030F00044C08981811141C0809142038017E8F169
:1031000020E12A95F1F75A9A529A82E08A95F1F7CE
:1031100000C0A8E00A9FC001112400914303109150
:103120004403080F191F5A98F8016581662321F09E
:10313000868197810E942D180E949917F0E1FA95D7
:10314000F1F75A9852985A9A20E12A95F1F7D80146
:1031500012966C911297662331F113968D919C9182
:103160000E94CC17D801ED91FC91882311F088E0E2
:1031700001C082E080830E9491170F90DF91CF9170
:10318000FF91EF91BF91AF919F918F917F916F913F
:103190005F914F913F912F911F910F910F900FBE13
:1031A0000F901F901895ED91FC91E1CF0F931F9315
:1031B000CF93DF9320914203281719060CF471C0B6
:1031C0008C0193E0000F111F9A95E1F7C091430322
:1031D000D0914403C00FD11FF894529A5A9825E019
:1031E0002A95F1F70000982F969595708570980FA5
:1031F000892F837096959695980F092B0E949917A1
:1032000000C067E0802F0E940C1880E18A95F1F7DA
:1032100052985A9A4A9B17C087E090E04A9915C085
:103220006D81662321F18E819F810E94CC178111CF
:103230001EC0529A5A9AE881F98182E0808378947C
:1032400082E090E00DC000C0E5CF019771F4529A82
:103250005A9AE881F98181E08083789481E090E056
:10326000DF91CF911F910F91089500C0D7CF0E9499
:10327000911720E22A95F1F75A98529A80E18A959F
:10328000F1F76A81662321F08B819C810E942D18C1
:103290000E949917E881F9811082789490E080E08B
:1032A000DFCF84E090E0DCCF90934A038093490322
:1032B0000895E0914903F0914A03309721F001907D
:1032C000F081E02D099480E00895E0914903F091A8
:1032D0004A03309721F00280F381E02D099408958C
:1032E000E0914903F0914A03309739F022E0DC0184
:1032F0002C930480F581E02D0994089520914703D3
:10330000309148032817390771F090934803809350
:103310004703E0914903F0914A03309721F006807A
:10332000F781E02D099408952091450330914603DB
:103330002817390771F09093460380934503E09175
:103340004903F0914A03309721F00084F185E02D84
:103350000994089585B7806885BF85B7806885BF63
:103360000895089508950C94B11908950C94B51911
:103370000E94AA190E94B2190C94B31981E0089511
:103380000C94BE190E9486240E9477070E94DF24B5
:103390000E9452130C94B619BF92CF92DF92EF9213
:1033A000FF920F931F93CF93DF93CDB7DEB72A978A
:1033B0000FB6F894DEBF0FBECDBF0E948D080E94ED
:1033C000C019882309F461C08CE4C82E83E0D82E8C
:1033D00010E000E0B02E802F0E94F408E82EF601E5
:1033E000F1906F01F81609F44AC08091C00381FD85
:1033F0000E94FA089F2D9E2580E0FF24F394292F38
:103400002F21C1F18E83BF82EF2081E009F480E09B
:1034100088870E948F248160782F9A8789874E81C0
:103420005F8168858A850E94661AF801E45BFC4F1B
:103430008081F826F0820E9485130E946C260E94EB
:10344000591990914B03891789F10E94591980935A
:103450004B032A960FB6F894DEBF0FBECDBFDF91A7
:10346000CF911F910F91FF90EF90DF90CF90BF9081
:103470000C94890B8F5FFF0C863009F0C0CF0F5F73
:103480001F4F0830110509F0A5CF8FEF89838A837C
:103490001B820E948F248160782F9D838C834981B9
:1034A0005A816B818D810E94661AC5CF2A960FB60C
:1034B000F894DEBF0FBECDBFDF91CF911F910F916A
:1034C000FF90EF90DF90CF90BF900895CF93DF9360
:1034D000CDB7DEB72B970FB6F894DEBF0FBECDBFCA
:1034E0004F83588769877A878B871E821D8285E084
:1034F000FE013796DE01119601900D928A95E1F753
:1035000049815A816B817C818D819E812B960FB67A
:10351000F894DEBF0FBECDBFDF91CF910C94B91FE1
:10352000FC01808191810C941A22CF93C82F8823AB
:1035300069F18CEF8C0F813AA0F46C2F80917301AC
:10354000909174010E94CA23882329F08C2F0E9435
:103550004F220E94AC228C2F0E944822CF910C94C3
:10356000AC2280E28C0F883048F4C77081E001C043
:10357000880FCA95EAF70E947022F0CFC03F30F062
:103580008C2F0E947A25CF910C946126CF910895BB
:10359000882361F19CEF980F913A20F40E944F220A
:1035A0000C94AC2290E2980F983050F4877091E020
:1035B00001C0990F8A95EAF7892F0E947622F0CFF1
:1035C0009BE5980F933020F490E080E00C947E19F6
:1035D00098E5980F973120F490E080E00C949419CE
:1035E000803F20F00E94E2250C9461260895CF933D
:1035F000C82F0E94951AC93349F42FEF87EE93E044
:10360000215080409040E1F700C000008C2FCF9106
:103610000C94C81A882321F00E9470220C94AC22CA
:103620000895882321F00E9476220C94AC220895FC
:10363000BF92CF92DF92EF92FF920F931F93CF939F
:10364000DF936C01D62FC72FFC01058102950F7007
:10365000128111110E948D220E946622E82E882379
:1036600091F01123E9F08C2F807F803421F080E2EB
:103670008D0F8830A8F082E00E94F7220E94662217
:1036800091E0E82EE926BC2EB2949FE0B922FBE03F
:10369000FB15A8F1EB2DF0E0E256FD4C0C94622EE8
:1036A000E12CF1CF0C2F0F70C07F11F00295007F3D
:1036B0001123A9F0002359F080E28D0F883010F01B
:1036C000D11109C0802F0E9470220E94AC228D2F40
:1036D0000E94951A14C0802F0E948022F6CF8D2F51
:1036E0000E94C81A002359F080E28D0F883010F034
:1036F000D1112CC0802F0E9476220E94AC222B2D4B
:103700002850330B2430310520F40E9459190E94AF
:10371000890BEE2009F472C10E94622280FD6EC105
:10372000F60112820E945C220E94E520C6010E94DE
:103730001F1D0E945C22DF91CF911F910F91FF907E
:10374000EF90DF90CF90BF900C940621802F0E94C5
:103750008622D3CF2C2F2F70F22EC07FC03219F0CB
:10376000F29480EFF822DD2369F0D13049F1112382
:1037700091F1002351F1F601858180FFA8CF8F7070
:10378000858323C0112381F0011106C00E9493227A
:103790008F290E940A1BB3CF0130C1F70E949322E8
:1037A0008F290E949922ABCF011106C00E94A2224C
:1037B0008F2D0E94111BA3CF013009F4A0CFF6CFAB
:1037C000112329F0063008F09ACF8F2DE2CF053073
:1037D00008F095CFEDCF002359F3D93349F4FFEF2B
:1037E00027EE33E0F15020403040E1F700C0000008
:1037F0008D2F0E94C81A83CF8D2F112329F00E948C
:103800007A250E9461267BCF0E94E225FACF8C2F79
:10381000837009F041C0111172CF4D2F429546952A
:103820004770440F440F0D2F0F7010E030E020E080
:10383000042E04C0000F111F221F331F0A94D2F759
:1038400060E070E0CB01D4FF0FC06FE070E080E07B
:1038500090E004C0660F771F881F991F4A95D2F722
:103860006095709580959095C695C695C370602BB0
:10387000712B822B932BC23049F058F4C13019F0D0
:103880000E9477203CCF0E94652039CF0E9489207A
:1038900036CF0E94632033CF8695112311F08C2FF1
:1038A0008170882309F42BCF4D2F429546954770A0
:1038B000440F440F0D2F0F7010E030E020E0042E75
:1038C00004C0000F111F221F331F0A94D2F760E0BB
:1038D00070E0CB01D4FF0FC06FE070E080E090E0BB
:1038E00004C0660F771F881F991F4A95D2F760950D
:1038F000709580959095C695C695C370602B712B79
:10390000822B932BC23049F058F4C13019F00E9439
:103910005C21F5CE0E944A21F2CE0E946E21EFCEAC
:103920000E949F20ECCECF70112329F08C2F0E9493
:10393000E5208D2F2ECF8D2F0E94111B8C2F0E94E2
:103940000621DDCED23F89F160F4D03FC9F0D13FEE
:1039500029F1112309F442C00111B9CE8C2F8F71C6
:1039600021C0D33F39F1D43FA1F7112369F1CF71C1
:103970008C2F0E94E52063E08C2F0E94E222BFCEB4
:10398000112341F0053008F0BACE8C2F8F710E94C0
:103990002921B5CE063008F0B2CEF7CF8C2F8F712B
:1039A000112369F20E94E520AACE8C2F8F7111237A
:1039B000C9F3C5CF112329F08C2F8F710E94D0201D
:1039C0009ECE0E94AB209BCE81E00E94F722023067
:1039D00008F495CE82E00E94F72291CE002359F0A0
:1039E000D93309F005CF8FEF97EEE3E08150904097
:1039F000E040E1F7FBCE8C2F8F71A1CFDF91CF910B
:103A00001F910F91FF90EF90DF90CF90BF9008959E
:103A10000F931F93CF93DF93EC01688179818A81A3
:103A20000E9424228C010E9480210E946220B80101
:103A3000CE01DF91CF911F910F910C94181BCF9362
:103A4000DF93EC018B819C81892B29F088819981FE
:103A500089238F3F59F4DF91CF910895CE010E94C1
:103A6000081DCE01DF91CF910C946D0BCE010E9409
:103A7000A10B8111F3CF0E946622882361F38A8112
:103A8000882349F382E0DF91CF910C94F7220E94C2
:103A90008D220E9490220E94AC220E9486270C94C4
:103AA00061260E9456220C94471D0E947D220C9490
:103AB000511DE92FE295EF70E250EE3070F4F0E026
:103AC000E655FD4C0C94622E803F19F020F4883EA0
:103AD00020F481E00895843FE1F380E00895883E7A
:103AE000C0F3813FD1F7F5CF93FB882780F9089584
:103AF0000E941A220C94591DCF93DF9300D000D05E
:103B00000F92CDB7DEB70F900F900F900F900F90E0
:103B1000DF91CF910895CF93DF9300D000D000D0F4
:103B2000CDB7DEB726960FB6F894DEBF0FBECDBF79
:103B3000DF91CF9108951F93CF93DF93C0915503E9
:103B400016E0809156038C1304C0DF91CF911F9132
:103B50000895D0E01C9FF0011D9FF00D1124E95A3B
:103B6000FC4F4081518162817381848195810E94E3
:103B70008B1D2196C770E5CF409187035091880334
:103B80006091890370918A0380918B0390918C03DB
:103B90000C948B1D1F93CF93DF9380918C03807FB8
:103BA000A9F480918903882389F080915503C091FD
:103BB00056036091870370918803A0918A03B091A6
:103BC0008B03D62FD72316E0C81304C0DF91CF9103
:103BD0001F91089590E0109711F0DF3F19F40196BE
:103BE0008770F2CF189F9001199F300D1124F901B1
:103BF000E95AFC4F41814713F2CF40814613EFCF82
:103C000042814111ECCF438154814A1B5B0B483CFC
:103C1000510528F780918C038F70806180938C030D
:103C2000F901E45AFC4F80818F708061808387E8BE
:103C300093E00E941F1DDF91CF911F910C949B1D5B
:103C4000AF92BF92CF92DF92EF92FF920F931F93AA
:103C5000CF93DF93CDB7DEB761970FB6F894DEBF91
:103C60000FBECDBF8C0185E0F801DE011D960190ED
:103C70000D928A95E1F7F80140815181E28087E851
:103C8000C82E83E0D82E60918A0370918B03611552
:103C9000710509F44FC19091870320918803892F02
:103CA00082238F3F09F446C1A380B480F09089033A
:103CB000F501E61BF70BFF2009F40AC180918C0384
:103CC000382F307FE83CF10508F0C0C0311179C0D1
:103CD000FE2C251323C0941321C0E1101FC08F7048
:103CE000806180938C030E94BC1DC6010E941F1D31
:103CF00080918C03F80185838F2D61960FB6F8941F
:103D0000DEBF0FBECDBFDF91CF911F910F91FF900E
:103D1000EF90DF90CF90BF90AF900895AB2829F03F
:103D2000842F85238F3F09F021C180E0F82FF170A7
:103D3000DF2E80FF3CC0809155032091560336E072
:103D4000821315C04D875E878D859E850E941A223D
:103D5000292F22952F702230F0F0243018F59F7013
:103D6000F1F0F8019581907FD1F4D12C1EC090E044
:103D7000389FF001399FF00D1124E95AFC4F618101
:103D8000651306C06081641303C062816E110FC0A9
:103D900001968770D5CF9F7011F0882331F3805E34
:103DA000883018F3C8010E941F1DFD2CA5CFEE20FE
:103DB00009F4A2CF80918C03816080938C03F12C55
:103DC0009BCF251314C0941312C0E11010C0F8014A
:103DD0008583C8010E941F1D86E0F801A7E8B3E0B3
:103DE00001900D928A95E1F70E94BC1D85CF4D8709
:103DF0005E878D859E850E94781D882319F1EE20AF
:103E000009F180918C03803270F02091870330910A
:103E1000880338872F831986BB86AA868C87CE01B4
:103E200007960E941F1D86E0F801A7E8B3E0019005
:103E30000D928A95E1F70E94CA1D0E94BC1DFF24C5
:103E4000F3945ACFC8010E941F1DF9CF311113C03E
:103E50007A2DB98AA88A6E2D89890E947C1D87E8EF
:103E600093E00E941F1D86E0F60111928A95E9F702
:103E70000E94BC1DA4CF25130FC094130DC0E110E8
:103E80000BC0F8018583C8010E941F1D86E0F60162
:103E900011928A95E9F730CF4D875E878D859E8593
:103EA0000E94781D882371F2EE2061F280918C03CC
:103EB000803208F4B8CF20918703309188033A8389
:103EC00029831B82BD82AC828E83CE010196A9CF4D
:103ED000E83CF10510F5FE2CEE2009F4B3CF2513D4
:103EE0000BC0941309C086E0F801A7E8B3E0019085
:103EF0000D928A95E1F700CF4D875E878D859E856F
:103F00000E94781D81118FCF80918C0381608093F6
:103F10008C03C8010E941F1DEFCE7A2DB98AA88A92
:103F20006E2D89890E947C1D86E0F60111928A958A
:103F3000E9F75ACFEE2009F485CF4D875E878D854E
:103F40009E850E94781DF82E882309F47BCF86E099
:103F5000F801A7E8B3E001900D928A95E1F787E8B0
:103F600093E00E94901A0E94CA1D3ECF81E08E25E8
:103F7000DDCE1F93CF93DF93CDB7DEB72C970FB66F
:103F8000F894DEBF0FBECDBF4F83588769877A870D
:103F90008B879C87CE0107960E94201E882369F09C
:103FA0008A859B85892B39F04F815885842F8523FD
:103FB0008F3F09F071C016E05FC086E0FE013796C2
:103FC000DE01119601900D928A95E1F78A859B8515
:103FD000892B89F38F81988589238F3F61F3209105
:103FE000560330E0C9010196877099274091550327
:103FF0004817190671F40E94551D1092560310922D
:10400000550386E0E7E8F3E0DF011D928A95E9F7C2
:10401000D2CF96E0929FD001939FB00D1124A95A60
:10402000BC4FFE01319601900D929A95E1F7809375
:1040300056030E949B1DBFCF819FC0011124895A46
:104040009C4F0E94201E8823E9F0E09155031E9F9B
:10405000F0011124E95AFC4F408151816281738142
:10406000848195810E948B1D8091550390E001967B
:10407000877099278093550380915503909156033B
:104080008913DACF2C960FB6F894DEBF0FBECDBFE2
:10409000DF91CF911F91089569857A858B859C85E5
:1040A0000E948B1D88CF08950C9453200E945420A9
:1040B0006093AF037093B0038093B1039093B20306
:1040C0000C94471D08950C9456200F931F93009154
:1040D000AF031091B0032091B1033091B203602B74
:1040E000712B822B932B1F910F910C9456200F93C1
:1040F0001F930091AF031091B0032091B103309151
:10410000B20360237123822393231F910F910C9498
:1041100056200F931F930091AF031091B00320918D
:10412000B1033091B20360277127822793271F9133
:104130000F910C9456200C9453200C949B200E94B9
:104140009D206093AB037093AC038093AD03909379
:10415000AE030C94471D60E070E0CB010C949F20EF
:10416000611571058105910529F481E0442361F011
:1041700080E00895DC01CB0104C0B695A795979522
:1041800087954A95D2F781700895482F6091AB03C7
:104190007091AC038091AD039091AE030C94B0206C
:1041A0000F931F9341E050E060E070E08A019B01B3
:1041B00004C0000F111F221F331F8A95D2F7C901B7
:1041C000B8011F910F910C949F200F931F9341E012
:1041D00050E060E070E004C0440F551F661F771F79
:1041E0008A95D2F78091AB039091AC03A091AD0377
:1041F000B091AE038A019B01082B192B2A2B3B2B74
:10420000C901B8011F910F910C949F200F931F9328
:1042100041E050E060E070E004C0440F551F661FAD
:10422000771F8A95D2F7CB01BA016095709580957A
:1042300090950091AB031091AC032091AD033091A8
:10424000AE0360237123822393231F910F910C945B
:104250009F200F931F9341E050E060E070E004C0A6
:10426000440F551F661F771F8A95D2F78091AB03C5
:104270009091AC03A091AD03B091AE038A019B0174
:10428000082719272A273B27C901B8011F910F9139
:104290000C949F200F931F930091AB031091AC03DC
:1042A0002091AD033091AE03602B712B822B932BA9
:1042B0001F910F910C949F200F931F930091AB03BC
:1042C0001091AC032091AD033091AE0360237123B4
:1042D000822393231F910F910C949F200F931F9380
:1042E0000091AB031091AC032091AD033091AE036C
:1042F00060277127822793271F910F910C949F208D
:104300000895E92FEE0FE90FEE0F8E0F982F97709B
:1043100041E001C0440F9A95EAF786958695869507
:1043200095E0899FF0011124E357FC4F30E020E035
:1043300070E05191DF011197CB01022E02C09695DA
:1043400087950A94E2F781708195852784238527D4
:104350008C932F5F3F4F2530310559F70895E92F92
:10436000EE0FE90FEE0F8E0F982F977086958695BA
:10437000869525E0829FF0011124E357FC4F50E021
:1043800040E080E0219130E0092E02C0369527956B
:104390000A94E2F721703327042E01C0220F0A94F9
:1043A000EAF7822B4F5F5F4F4530510559F708956B
:1043B000BF92CF92DF92EF92FF920F931F93CF9312
:1043C000DF938C01C090AB03D090AC03E090AD03C1
:1043D000F090AE038091AF039091B003A091B10330
:1043E000B091B203C82AD92AEA2AFB2ACFE1D0E049
:1043F000BC2ED701C6010C2E04C0B695A795979583
:1044000087950A94D2F780FD0EC0219788F7B12CCA
:104410008B2DDF91CF911F910F91FF90EF90DF9047
:10442000CF90BF900895B8018C2F0E94F70B019791
:1044300061F3EECFCF93DF93EC010E94D821BE0150
:10444000DF91CF910C94F70B1F93CF93DF93EB0188
:1044500090915403992331F0CB01DF91CF911F91BB
:104460000C941A22882379F0CB010E94D821182FAE
:10447000682FCE010E948121BE01812FDF91CF9153
:104480001F910C94F70BCB010E94AF21182FF4CF92
:10449000682F80917301909174010C940024682F0F
:1044A00080917301909174010C94022480917301A6
:1044B000909174010C9404248091B30385958595A3
:1044C000859508958091B303877008959091B30303
:1044D000977081E009F480E008958091BF0308950A
:1044E0009091BF03892B8093BF030895809590918D
:1044F000BF0398239093BF0308951092BF030895BC
:104500009091BE03892B8093BE030895809590916E
:10451000BE0398239093BE0308951092BE0308959E
:104520001092BD0308958091B403089508950C94EA
:1045300096229091B403981721F08093B4030C94C1
:10454000972208958091B403882329F01092B40330
:1045500080E00C9497220895E0917301F09174012A
:104560008091BF038083E0917301F0917401808199
:104570009091BE03892B8083E0917301F0917401C7
:1045800080819091BD03892B80839091B4039923FE
:1045900081F0E0917301F09174018081892B808317
:1045A00080917301909174010E94B82381110E943F
:1045B000A22280917301909174010C946519089561
:1045C0000C94DF2298E0899F90011124622B609364
:1045D000B3030E94E5208091B30385958595859569
:1045E0000C94E0221092B30380E00C94E0229091AE
:1045F000B303809589238093B303282F277071F428
:10460000282F082E000C330B9217130639F08595CE
:10461000859585950E9406210C94F222089590E0DC
:1046200080E00E94B43121E08C3E9E4F09F020E0F2
:10463000822F089582E090E00C94A63183E090E010
:104640000C94A631682F83E090E00C94BA31CF939C
:1046500084E090E00E94A631C82F81E290E00E94A1
:10466000A631982F8C2FCF910895CF93C92F682F03
:1046700084E090E00E94BA316C2F81E290E0CF910B
:104680000C94BA31AB01BC018FE090E00C94CC31BA
:10469000AB01BC0183E190E00C94CC3160E070E0B0
:1046A000CB010C94482360E070E0CB010E944223D0
:1046B0000C944E236CEE7EEF90E080E00E94D831A7
:1046C00060E082E090E00E94BA3160E083E090E038
:1046D0000E94BA311092AF031092B0031092B1034E
:1046E0001092B20360E084E090E00E94BA3160E092
:1046F00081E290E00E94BA3160E085E090E00E94A3
:10470000BA3160E086E090E00E94BA316FEF87E056
:1047100090E00E94BA3140E050E0BA0188E090E0B9
:104720000E94CC3160E08DE090E00E94BA3140E020
:1047300050E0BA0188E190E00E94CC3160E087E16E
:1047400090E00E94BA3140E050E0BA018CE190E084
:104750000E94CC3160E080E290E00E94BA310C947B
:1047600053230C945A23682F8EE090E00C94BA31B6
:104770009C012E5F3F4FAC01485F5F4F80E02417E4
:10478000350709F40895F90191919F019923B9F32F
:104790008F5FF5CF662349F0FC0132960896219190
:1047A000261729F0E817F907D1F780E0089581E08E
:1047B00008959C01FC0132969FEF80E041914617DD
:1047C00051F09F3F19F4411101C0982F8F5F86303F
:1047D000A9F79F3F09F40895290F311D97FD3A95D8
:1047E000F90162830895FC013296089621912613FF
:1047F00003C0DF0111971C92E817F907B9F7089574
:104800000C94D9230C94F323029626E0FC01119218
:104810002A95E9F70895089508950C940C240E94B0
:104820000D248091BC04843049F11092C10388E1C9
:1048300090E020E40FB6F894A895809360000FBE36
:104840002093600080E00E94890B0E940D2483B7B2
:10485000817F846083BF83B7816083BF78948895AC
:1048600083B78E7F83BF0FB6F894A89580916000C0
:10487000886180936000109260000FBE08950895D3
:10488000CF930E940B240E948D080E943F24C0E019
:104890008C2F0E94F408811105C0CF5FC830C1F78A
:1048A000CF91089581E0FCCF08950C9454240E9488
:1048B000551D0E9459190E94890B0C9455241F9272
:1048C0001FB61F9211248F939F93AF93BF93809134
:1048D000C103811113C08091B2049091B304A091DF
:1048E000B404B091B5044196A11DB11D8093B204EA
:1048F0009093B304A093B404B093B504BF91AF9167
:104900009F918F911F901FBE1F90189582E084BDCC
:1049100093E095BD9AEF97BD80936E0008952FB7F1
:10492000F8948091B2049091B304A091B404B09132
:10493000B5042FBF08959C014FB7F8948091B2043D
:104940009091B304A091B404B091B5044FBF821B01
:10495000930B089578941F921FB61F9211248F9382
:104960009F93AF93BF938091B2049091B304A091B1
:10497000B404B091B5040196A11DB11D8093B20499
:104980009093B304A093B404B093B504BF91AF91D6
:104990009F918F911F901FBE1F90189587E797E7F3
:1049A000909301088093000888E19AE00FB6F8948C
:1049B000A895809360000FBE90936000FFCF0E9487
:1049C0000F23811102C00E94B1230E941A238093F9
:1049D000C0030E9427239093B7048093B6040E94DB
:1049E0001E23682F70E090E080E00C94632080919B
:1049F000C90380FF12C060917A0185E0689FB00111
:104A00001124759567957595679560387105A8F5BA
:104A100061157105A1F1862F089581FF09C060918C
:104A20007A0185E0689FB001112475956795EDCFF7
:104A300060917A0182FD0AC08091C8038823D1F079
:104A40009091790160917A01891728F085E0689F3B
:104A5000B0011124DACF869FB001112485E0869F32
:104A60009001879F300D1124692F70E0C9010E94C9
:104A70004E2ECBCF65E070E0CECF8FE7089581E07A
:104A800008958091C90380FF0CC06091760170E0A9
:104A900075956795759567956115710549F1862F2F
:104AA000089581FF06C06091760170E07595679565
:104AB000F3CF6091760182FD0BC09091C8039923DA
:104AC000A1F06091750180917601961738F0682FFA
:104AD00070E06038710500F38FE70895899FC00189
:104AE000112470E00E944E2EF4CF61E070E0D7CF29
:104AF00081E00895803F31F40E94F72481958093EE
:104B0000CD030895813F19F40E94F724F8CF823F26
:104B100031F40E94F72481958093CC030895833F5C
:104B200019F40E94F724F8CF893F29F40E94412507
:104B30008093CE0308958A3F21F40E9441258195F8
:104B4000F7CF8B3F31F40E94412581958093CF03AD
:104B500008958C3F19F40E944125F8CF843F31F429
:104B60008091CB0381608093CB030895853F21F42E
:104B70008091CB038260F7CF863F21F48091CB03F5
:104B80008460F1CF873F21F48091CB038860EBCF25
:104B9000883F21F48091CB038061E5CF8D3F31F4D4
:104BA0008091C90381608093C90308958E3F21F4E9
:104BB0008091C9038260F7CF8F3FB9F78091C90315
:104BC0008460F1CF9091CC03803F41F48091CD037C
:104BD00087FD1092CD03992371F00895813F29F448
:104BE0008091CD031816ACF3F6CF823F81F497FF86
:104BF000F2CF1092CC038091CD039091CE03892BFC
:104C00009091CF03892B49F71092C8030895833FF1
:104C100019F4191674F3DFCF893F39F48091CE036C
:104C20001816CCF61092CE03D6CF8A3F29F4809185
:104C3000CE0387FFD0CFF6CF8B3F39F48091CF03DF
:104C400087FFC9CF1092CF03C6CF8C3F29F4809144
:104C5000CF031816BCF3BFCF843F31F48091CB0350
:104C60008E7F8093CB03B7CF853F21F48091CB0318
:104C70008D7FF7CF863F21F48091CB038B7FF1CFDF
:104C8000873F21F48091CB03877FEBCF883F21F4CE
:104C90008091CB038F7EE5CF8D3F31F48091C903A6
:104CA0008E7F8093C90397CF8E3F21F48091C903F3
:104CB0008D7FF7CF8F3F09F08ECF8091C9038B7F17
:104CC000F0CF8AEC93E00E9470190E948F24909399
:104CD000C7038093C6030895CF93DF9300D000D01D
:104CE00000D0CDB7DEB786E0EAECF3E0DE01119646
:104CF00001900D928A95E1F78091CC039091CD03BC
:104D0000892B81F08091C4039091C5030E949B245C
:104D1000AC019091C803992331F180917B018417F4
:104D2000150670F18091CE039091CF03892B91F0FD
:104D30008091C2039091C3030E949B24AC01909187
:104D4000C803992309F478C0809177018417150668
:104D500008F480C026960FB6F894DEBF0FBECDBF14
:104D6000DF91CF91089520917C018AE0289F9001E6
:104D7000112424173507B0F69F5F9093C80302C033
:104D80009F3FD1F71092CE031092CF038091CC03B6
:104D9000181624F40E94F7248093CC038091CC034E
:104DA00087FF05C00E94F72481958093CC038091F2
:104DB000CD03181624F40E94F7248093CD0380912C
:104DC000CD0387FF05C00E94F72481958093CD0312
:104DD0003091CC033323A1F02091CD03222381F025
:104DE00045EB3403C00111249923F1F09093CC03D7
:104DF00045EB2403900111243323D1F03093CD03EC
:104E00000E9461268091C6039091C7039093C503C9
:104E10008093C40386E0FE013196AAECB3E00190D2
:104E20000D928A95E1F77ECF81E08093CC03E0CFAD
:104E300081E08093CD03E4CF209178018AE0289F20
:104E4000900111242417350708F084CF9F5F9093B9
:104E5000C80302C09F3FD1F71092CC031092CD033C
:104E60008091CE03181624F40E9441258093CE032E
:104E70008091CE0387FF05C00E94412581958093D4
:104E8000CE038091CF03181624F40E94412580930D
:104E9000CF038091CF0387FF05C00E9441258195F4
:104EA0008093CF033091CE033323A1F02091CF0321
:104EB000222381F045EB3403C00111249923F1F042
:104EC0009093CE0345EB2403900111243323D1F0BA
:104ED0003093CF030E9461268091C6039091C7034F
:104EE0009093C3038093C20386E0FE013196AAEC3F
:104EF000B3E001900D928A95E1F72CCF81E0809389
:104F0000CE03E0CF81E08093CF03E4CF86E0EAECEC
:104F1000F3E0DF011D928A95E9F71092C803109221
:104F2000C90308958091D80308950895CF93DF931E
:104F3000EC010E947229823011F08430F9F482E091
:104F40008093E9008FEF9091E800815095FD06C0B5
:104F500095ED9A95F1F700008111F5CF8091E80069
:104F600085FF0CC050E040E066E070E0CE010E949A
:104F70008F298091E8008E778093E800DF91CF91B0
:104F80000895CF93DF93EC010E947229823011F0D3
:104F9000843039F581E08093E9008FEF9091E8004B
:104FA000815095FD06C095ED9A95F1F700008111AD
:104FB000F5CF8091E80085FF14C050E040E068E044
:104FC00070E0CE010E948F298091E8008E77809357
:104FD000E80088E0FE01A0EDB3E001900D928A9513
:104FE000E1F7DF91CF91089508958091BB0481117D
:104FF00009C00E941F2B0E947C2B8091E2008460DC
:105000008093E20008951092BB04089508950895D6
:105010000C94572442E061EC81E00E949B2A42E21A
:1050200061EC82E00C949B2A8091BE04833009F4E9
:105030005FC030F48130C1F1823009F49BC0089523
:105040008A3009F487C08B3009F46DC0893009F0CB
:105050004EC08091BD04813209F049C08091C104E5
:105060009091C204029708F042C08091E800877FC7
:105070008093E8008091E80082FF35C09091F300B2
:105080008091F200029729F48091F1008B7F8130AA
:1050900021F48091F1008093D8038091E8008B7710
:1050A0008093E8000C94CF2A8091BD04813AF9F4F2
:1050B0008091E800877F8093E8008091C1049091FF
:1050C000C204892B61F468E080ED93E070E00E94F7
:1050D000DE298091E8008B778093E800089560E0F6
:1050E00090E080E0F3CF8091BC048111C3CF08959C
:1050F0008091BD04813AD9F78091C1049091C20496
:10510000892BA9F78091E800877F8093E800809140
:10511000E80080FFFCCF809187018093F1008091AF
:10512000E8008E77BDCF8091BD04813201F7809178
:10513000C1049091C204892BD1F68091E800877F49
:105140008093E8000E94CF2A8091BF04809387015A
:105150000C94551D8091BD04813249F68091E80080
:10516000877F8093E8000E94CF2A8091C0048093BB
:10517000D90308958091BD04813A09F0B8CF809198
:10518000E800877F8093E8008091E80080FFFCCFF3
:105190008091D903C2CF84B7877F84BF0FB6F894BC
:1051A000A8958091600088618093600010926000F3
:1051B0000FBE80E890E00FB6F89480936100909362
:1051C00061000FBE0E94B8190E941F2B0E947C2B09
:1051D0008091E20084608093E20078940E94052E22
:1051E0000E94C2198DE791E00E9454198091BC047D
:1051F000853019F00E94CC19F9CF0E940F248091BC
:10520000BA04882399F30E944024882379F30E94EA
:105210007929ECCF0C940C29292F33272330310521
:1052200019F168F42130310509F44AC02230310502
:1052300009F44BC090E080E030E020E028C021324B
:10524000310579F122323105A9F780E490E02EE9A9
:105250003AE061157105D9F08FE490E02FE43AE06F
:1052600061307105A1F0E6CF99278130910599F061
:10527000009741F08230910589F00397D9F6E6EB6B
:10528000F9E002C0EEEFF9E0849190E09F01FA01AD
:10529000318320830895ECEEF9E0F6CFECEBF9E0F2
:1052A000F3CF89E090E024E13AE06115710579F3EC
:1052B00089E090E02DE23AE06130710541F3BACF28
:1052C00082E190E02DE33AE0E2CF8BE390E022E050
:1052D0003AE0DDCF8091BC04843011F482E008957F
:1052E00081E008958091DA03811102C00C946A294B
:1052F000089580E189BD82E189BD09B400FEFDCF3A
:105300008091D8008F7D8093D8008091E0008260EA
:105310008093E0008091E00081FDFCCF0895AF9282
:10532000BF92CF92DF92FF920F931F93CF93DF93A1
:105330006C01EB018A010E94EE2AF82E811123C034
:105340000115110539F0F80180819181C81BD90B35
:10535000C80ED91EB12CA12C2097A9F08091E8008D
:1053600085FD22C08091E8008E778093E8000115CA
:105370001105A1F0F80180819181A80EB91EB182BA
:10538000A08285E0F82E8F2DDF91CF911F910F9194
:10539000FF90DF90CF90BF90AF9008950E94EE2ACB
:1053A0008823D1F2F82EEFCFF60181916F0180931F
:1053B000F1002197FFEFAF1ABF0ACECFFC01809119
:1053C000C3049091C40486179707A0F06115710576
:1053D00029F49091E8009E779093E80090E06115A1
:1053E000710551F4911108C08091E80082FF34C02A
:1053F00080E00895BC01F2CF8091BC048823C1F104
:105400008530C1F18091E80083FD30C08091E800D3
:1054100082FDEACF8091E80080FFE1CF8091F30028
:105420002091F200382F6115710519F028303105EF
:1054300058F091E02830310509F090E02091E80023
:105440002E772093E800CBCF81918093F1006150BB
:1054500071092F5F3F4FE7CF8091BC04882341F053
:10546000853041F08091E80083FFBECF81E0089550
:1054700082E0089583E00895FC018091C304909137
:10548000C40486179707A0F06115710529F480916F
:10549000E8008E778093E80090E06115710551F483
:1054A000911108C08091E80082FF35C080E0089526
:1054B000BC01F2CF8091BC048823C9F18530C9F1C9
:1054C0008091E80083FD31C08091E80082FDEACF41
:1054D0008091E80080FFE1CF8091F3002091F200FD
:1054E000382F6115710519F02830310558F091E019
:1054F0002830310509F090E08091E8008E778093A4
:10550000E800CBCF84918093F1003196615071090E
:105510002F5F3F4FE6CF8091BC04882341F0853058
:1055200041F08091E80083FFBDCF81E0089582E0E3
:10553000089583E00895982F973028F08F70809316
:10554000E90081E008959093E900242F762F50E040
:10555000981731F07091EC002091ED005091F0001F
:1055600021FD02C09F5FE8CF3091EB003E7F30937A
:10557000EB003091ED003D7F3093ED003091EB007A
:1055800031603093EB007093EC002093ED0050936A
:10559000F0002091EE0027FDE5CF80E00895809196
:1055A000BD0487FF13C08091E80082FF06C0809190
:1055B000E8008B778093E80004C08091BC048111DF
:1055C000F2CF08958091BC048823D9F38091E8003C
:1055D00080FFF8CF8091E8008E77ECCF2091E40037
:1055E0003091E50095E6A9012091EC00822F8170B1
:1055F00020FF06C08091E80080FF06C080E008958B
:105600002091E80022FD1AC08091BC04882389F013
:10561000853089F08091EB0085FD0FC02091E4007A
:105620003091E50042175307F9F29150E1F684E01A
:10563000089582E0089583E0089581E008950E942E
:105640008D2B0E94952BE0EEF0E0808181608083BD
:10565000E8EDF0E080818F77808319BCA7EDB0E0A2
:105660008C918E7F8C9380818F7E80831092BB047F
:1056700008950F931F93CF93DF930E948D2B0E9469
:10568000952BC8EDD0E088818F77888388818068EA
:10569000888388818F7D888319BC1092BC04109206
:1056A000B8041092BA041092B90400EE10E0F801A8
:1056B00080818B7F808388818160888342E060E085
:1056C00080E00E949B2AE1EEF0E080818E7F808363
:1056D000E2EEF0E080818160808380818860808359
:1056E000F80180818E7F8083888180618883DF914B
:1056F000CF911F910F910895E8EDF0E080818F7EAA
:105700008083E7EDF0E080818160808384E082BF68
:1057100081E08093BB040C94392BE8EDF0E08081AC
:105720008E7F80831092E20008951092DA0010922A
:10573000E10008951F920F920FB60F9211242F933C
:105740003F934F935F936F937F938F939F93AF9309
:10575000BF93EF93FF938091E10082FF0BC0809194
:10576000E20082FF07C08091E1008B7F8093E1001F
:105770000E94042E8091DA0080FF19C08091D80029
:1057800080FF15C08091DA008E7F8093DA008091CF
:10579000D90080FF96C080E189BD82E189BD09B44E
:1057A00000FEFDCF81E08093BC040E94F52780912C
:1057B000E10080FF19C08091E20080FF15C0809158
:1057C000E2008E7F8093E2008091E200806180930E
:1057D000E2008091D80080628093D80019BC85E0F7
:1057E0008093BC040E9407288091E10084FF2BC0B5
:1057F0008091E20084FF27C080E189BD82E189BDFC
:1058000089B5982F917080FFFBCF8091D8008F7D54
:105810008093D8008091E1008F7E8093E100809199
:10582000E2008F7E8093E2008091E20081608093AD
:10583000E2008091B804882309F449C084E0809391
:10584000BC040E9408288091E10083FF29C0809158
:10585000E20083FF25C08091E100877F8093E10013
:1058600082E08093BC041092B8048091E1008E7FA6
:105870008093E1008091E2008E7F8093E20080912E
:10588000E20080618093E20042E060E080E00E94FC
:105890009B2A8091F00088608093F0000E94062887
:1058A000FF91EF91BF91AF919F918F917F916F91F8
:1058B0005F914F913F912F910F900FBE0F901F90CE
:1058C000189519BC1092BC040E94032870CF8091D7
:1058D000E30087FD93E09093BC04B3CF1F920F9237
:1058E0000FB60F9211242F933F934F935F936F93B3
:1058F0007F938F939F93AF93BF93CF93DF93EF9358
:10590000FF93D091E900DF708091EC00C82FC17047
:1059100080FDC0E81092E9008091F000877F8093BD
:10592000F00078940E94B22C1092E9008091F0006F
:1059300088608093F000CD2BCF70C093E900FF9179
:10594000EF91DF91CF91BF91AF919F918F917F9117
:105950006F915F914F913F912F910F900FBE0F90DC
:105960001F9018951F93CF93DF93CDB7DEB7AA97FB
:105970000FB6F894DEBF0FBECDBF8DEB94E0209143
:10598000F100FC012193CF01F4E0853C9F07B9F7BA
:105990000E9414288091E80083FF1EC18091BD04FD
:1059A0009091BE049A3008F017C1E92FF0E0E85456
:1059B000FD4C0C94622E803899F0823809F00CC1AD
:1059C0008091C1048F70873008F006C18093E90090
:1059D0008091EB0085FB882780F91092E90006C0D2
:1059E0008091B9049091BA04911182609091E8007D
:1059F000977F9093E8008093F1001092F1008091DE
:105A0000E8008E77E5C0882309F4D3C0823009F01E
:105A1000E3C08091BF048111D6C08091C1048F7012
:105A20002FEF280F263008F0D7C08093E90020918F
:105A3000EB0020FFC8C0933031F48091EB0080620E
:105A40008093EB00C0C09091EB0090619093EB00CD
:105A500021E030E001C0220F8A95EAF72093EA00A6
:105A60001092EA008091EB008860EACF8111B4C007
:105A70001091BF041F778091E3008078812B809381
:105A8000E3008091E800877F8093E8000E94CF2A9E
:105A90008091E80080FFFCCF8091E30080688093D4
:105AA000E30082E0111183E08093BC0495C080582C
:105AB000823008F091C08091BF049091C0048C3D69
:105AC00023E09207A1F583E08A838AE289834FB7B6
:105AD000F894DE01139620E03EE051E2E32FF0E07F
